{
  "contractName": "Auction",
  "abi": [
    {
      "inputs": [],
      "stateMutability": "nonpayable",
      "type": "constructor"
    },
    {
      "anonymous": false,
      "inputs": [
        {
          "indexed": true,
          "internalType": "address",
          "name": "_owner",
          "type": "address"
        },
        {
          "indexed": true,
          "internalType": "address",
          "name": "_approved",
          "type": "address"
        },
        {
          "indexed": true,
          "internalType": "uint256",
          "name": "_tokenId",
          "type": "uint256"
        }
      ],
      "name": "Approval",
      "type": "event"
    },
    {
      "anonymous": false,
      "inputs": [
        {
          "indexed": true,
          "internalType": "address",
          "name": "_owner",
          "type": "address"
        },
        {
          "indexed": true,
          "internalType": "address",
          "name": "_operator",
          "type": "address"
        },
        {
          "indexed": false,
          "internalType": "bool",
          "name": "_approved",
          "type": "bool"
        }
      ],
      "name": "ApprovalForAll",
      "type": "event"
    },
    {
      "anonymous": false,
      "inputs": [
        {
          "indexed": false,
          "internalType": "address",
          "name": "winner",
          "type": "address"
        },
        {
          "indexed": false,
          "internalType": "uint256",
          "name": "amount",
          "type": "uint256"
        }
      ],
      "name": "AuctionEnded",
      "type": "event"
    },
    {
      "anonymous": false,
      "inputs": [
        {
          "indexed": false,
          "internalType": "address",
          "name": "bidder",
          "type": "address"
        },
        {
          "indexed": false,
          "internalType": "uint256",
          "name": "amount",
          "type": "uint256"
        }
      ],
      "name": "HighestPriceIncreased",
      "type": "event"
    },
    {
      "anonymous": false,
      "inputs": [
        {
          "indexed": true,
          "internalType": "address",
          "name": "previousOwner",
          "type": "address"
        },
        {
          "indexed": true,
          "internalType": "address",
          "name": "newOwner",
          "type": "address"
        }
      ],
      "name": "OwnershipTransferred",
      "type": "event"
    },
    {
      "anonymous": false,
      "inputs": [
        {
          "indexed": true,
          "internalType": "address",
          "name": "_from",
          "type": "address"
        },
        {
          "indexed": true,
          "internalType": "address",
          "name": "_to",
          "type": "address"
        },
        {
          "indexed": true,
          "internalType": "uint256",
          "name": "_tokenId",
          "type": "uint256"
        }
      ],
      "name": "Transfer",
      "type": "event"
    },
    {
      "inputs": [],
      "name": "CANNOT_TRANSFER_TO_ZERO_ADDRESS",
      "outputs": [
        {
          "internalType": "string",
          "name": "",
          "type": "string"
        }
      ],
      "stateMutability": "view",
      "type": "function",
      "constant": true
    },
    {
      "inputs": [],
      "name": "NOT_CURRENT_OWNER",
      "outputs": [
        {
          "internalType": "string",
          "name": "",
          "type": "string"
        }
      ],
      "stateMutability": "view",
      "type": "function",
      "constant": true
    },
    {
      "inputs": [
        {
          "internalType": "address",
          "name": "_approved",
          "type": "address"
        },
        {
          "internalType": "uint256",
          "name": "_tokenId",
          "type": "uint256"
        }
      ],
      "name": "approve",
      "outputs": [],
      "stateMutability": "nonpayable",
      "type": "function"
    },
    {
      "inputs": [
        {
          "internalType": "address",
          "name": "_owner",
          "type": "address"
        }
      ],
      "name": "balanceOf",
      "outputs": [
        {
          "internalType": "uint256",
          "name": "",
          "type": "uint256"
        }
      ],
      "stateMutability": "view",
      "type": "function",
      "constant": true
    },
    {
      "inputs": [
        {
          "internalType": "uint256",
          "name": "_tokenId",
          "type": "uint256"
        }
      ],
      "name": "getApproved",
      "outputs": [
        {
          "internalType": "address",
          "name": "",
          "type": "address"
        }
      ],
      "stateMutability": "view",
      "type": "function",
      "constant": true
    },
    {
      "inputs": [
        {
          "internalType": "address",
          "name": "_owner",
          "type": "address"
        },
        {
          "internalType": "address",
          "name": "_operator",
          "type": "address"
        }
      ],
      "name": "isApprovedForAll",
      "outputs": [
        {
          "internalType": "bool",
          "name": "",
          "type": "bool"
        }
      ],
      "stateMutability": "view",
      "type": "function",
      "constant": true
    },
    {
      "inputs": [],
      "name": "name",
      "outputs": [
        {
          "internalType": "string",
          "name": "_name",
          "type": "string"
        }
      ],
      "stateMutability": "view",
      "type": "function",
      "constant": true
    },
    {
      "inputs": [],
      "name": "owner",
      "outputs": [
        {
          "internalType": "address",
          "name": "",
          "type": "address"
        }
      ],
      "stateMutability": "view",
      "type": "function",
      "constant": true
    },
    {
      "inputs": [
        {
          "internalType": "uint256",
          "name": "_tokenId",
          "type": "uint256"
        }
      ],
      "name": "ownerOf",
      "outputs": [
        {
          "internalType": "address",
          "name": "_owner",
          "type": "address"
        }
      ],
      "stateMutability": "view",
      "type": "function",
      "constant": true
    },
    {
      "inputs": [
        {
          "internalType": "address",
          "name": "_from",
          "type": "address"
        },
        {
          "internalType": "address",
          "name": "_to",
          "type": "address"
        },
        {
          "internalType": "uint256",
          "name": "_tokenId",
          "type": "uint256"
        }
      ],
      "name": "safeTransferFrom",
      "outputs": [],
      "stateMutability": "nonpayable",
      "type": "function"
    },
    {
      "inputs": [
        {
          "internalType": "address",
          "name": "_from",
          "type": "address"
        },
        {
          "internalType": "address",
          "name": "_to",
          "type": "address"
        },
        {
          "internalType": "uint256",
          "name": "_tokenId",
          "type": "uint256"
        },
        {
          "internalType": "bytes",
          "name": "_data",
          "type": "bytes"
        }
      ],
      "name": "safeTransferFrom",
      "outputs": [],
      "stateMutability": "nonpayable",
      "type": "function"
    },
    {
      "inputs": [
        {
          "internalType": "address",
          "name": "_operator",
          "type": "address"
        },
        {
          "internalType": "bool",
          "name": "_approved",
          "type": "bool"
        }
      ],
      "name": "setApprovalForAll",
      "outputs": [],
      "stateMutability": "nonpayable",
      "type": "function"
    },
    {
      "inputs": [
        {
          "internalType": "bytes4",
          "name": "_interfaceID",
          "type": "bytes4"
        }
      ],
      "name": "supportsInterface",
      "outputs": [
        {
          "internalType": "bool",
          "name": "",
          "type": "bool"
        }
      ],
      "stateMutability": "view",
      "type": "function",
      "constant": true
    },
    {
      "inputs": [],
      "name": "symbol",
      "outputs": [
        {
          "internalType": "string",
          "name": "_symbol",
          "type": "string"
        }
      ],
      "stateMutability": "view",
      "type": "function",
      "constant": true
    },
    {
      "inputs": [
        {
          "internalType": "uint256",
          "name": "_tokenId",
          "type": "uint256"
        }
      ],
      "name": "tokenURI",
      "outputs": [
        {
          "internalType": "string",
          "name": "",
          "type": "string"
        }
      ],
      "stateMutability": "view",
      "type": "function",
      "constant": true
    },
    {
      "inputs": [
        {
          "internalType": "address",
          "name": "_from",
          "type": "address"
        },
        {
          "internalType": "address",
          "name": "_to",
          "type": "address"
        },
        {
          "internalType": "uint256",
          "name": "_tokenId",
          "type": "uint256"
        }
      ],
      "name": "transferFrom",
      "outputs": [],
      "stateMutability": "nonpayable",
      "type": "function"
    },
    {
      "inputs": [
        {
          "internalType": "address",
          "name": "_newOwner",
          "type": "address"
        }
      ],
      "name": "transferOwnership",
      "outputs": [],
      "stateMutability": "nonpayable",
      "type": "function"
    },
    {
      "inputs": [
        {
          "internalType": "address",
          "name": "_to",
          "type": "address"
        },
        {
          "internalType": "string",
          "name": "_uri",
          "type": "string"
        }
      ],
      "name": "mint",
      "outputs": [],
      "stateMutability": "nonpayable",
      "type": "function"
    },
    {
      "inputs": [
        {
          "internalType": "address",
          "name": "_address",
          "type": "address"
        }
      ],
      "name": "showMyNFT",
      "outputs": [
        {
          "components": [
            {
              "internalType": "uint256",
              "name": "tokenid",
              "type": "uint256"
            },
            {
              "internalType": "string",
              "name": "uri",
              "type": "string"
            },
            {
              "internalType": "bool",
              "name": "on_auction",
              "type": "bool"
            }
          ],
          "internalType": "struct Auction.MyNftoken[]",
          "name": "",
          "type": "tuple[]"
        }
      ],
      "stateMutability": "view",
      "type": "function",
      "constant": true
    },
    {
      "inputs": [
        {
          "internalType": "address",
          "name": "_address",
          "type": "address"
        }
      ],
      "name": "showClaim",
      "outputs": [
        {
          "internalType": "uint256[]",
          "name": "",
          "type": "uint256[]"
        }
      ],
      "stateMutability": "view",
      "type": "function",
      "constant": true
    },
    {
      "inputs": [
        {
          "internalType": "uint256",
          "name": "nowtime",
          "type": "uint256"
        }
      ],
      "name": "showAuction",
      "outputs": [
        {
          "components": [
            {
              "internalType": "uint256",
              "name": "tokenid",
              "type": "uint256"
            },
            {
              "internalType": "string",
              "name": "uri",
              "type": "string"
            },
            {
              "internalType": "uint256",
              "name": "begin_time",
              "type": "uint256"
            },
            {
              "internalType": "uint256",
              "name": "end_time",
              "type": "uint256"
            },
            {
              "internalType": "uint256",
              "name": "current_price",
              "type": "uint256"
            },
            {
              "internalType": "address",
              "name": "highest_bidder",
              "type": "address"
            }
          ],
          "internalType": "struct Auction.AuctionInfo[]",
          "name": "",
          "type": "tuple[]"
        }
      ],
      "stateMutability": "view",
      "type": "function",
      "constant": true
    },
    {
      "inputs": [
        {
          "internalType": "uint256",
          "name": "begin_time",
          "type": "uint256"
        },
        {
          "internalType": "uint256",
          "name": "end_time",
          "type": "uint256"
        },
        {
          "internalType": "uint256",
          "name": "token",
          "type": "uint256"
        },
        {
          "internalType": "uint256",
          "name": "start_price",
          "type": "uint256"
        },
        {
          "internalType": "address payable",
          "name": "beginner",
          "type": "address"
        }
      ],
      "name": "beginAuction",
      "outputs": [],
      "stateMutability": "nonpayable",
      "type": "function"
    },
    {
      "inputs": [
        {
          "internalType": "address payable",
          "name": "bidder",
          "type": "address"
        },
        {
          "internalType": "uint256",
          "name": "token",
          "type": "uint256"
        }
      ],
      "name": "bid",
      "outputs": [],
      "stateMutability": "payable",
      "type": "function",
      "payable": true
    },
    {
      "inputs": [
        {
          "internalType": "uint256",
          "name": "tokenid",
          "type": "uint256"
        }
      ],
      "name": "claim",
      "outputs": [],
      "stateMutability": "payable",
      "type": "function",
      "payable": true
    }
  ],
  "bytecode": "0x60806040523480156200001157600080fd5b5060016000806301ffc9a760e01b7bffffffffffffffffffffffffffffffffffffffffffffffffffffffff1916815260200190815260200160002060006101000a81548160ff02191690831515021790555060016000806380ac58cd60e01b7bffffffffffffffffffffffffffffffffffffffffffffffffffffffff1916815260200190815260200160002060006101000a81548160ff0219169083151502179055506001600080635b5e139f60e01b7bffffffffffffffffffffffffffffffffffffffffffffffffffffffff1916815260200190815260200160002060006101000a81548160ff02191690831515021790555033600860006101000a81548173ffffffffffffffffffffffffffffffffffffffff021916908373ffffffffffffffffffffffffffffffffffffffff1602179055506040518060400160405280600a81526020017f33313930313034363035000000000000000000000000000000000000000000008152506005908051906020019062000193929190620001f0565b506040518060400160405280600481526020017f7a796e6d0000000000000000000000000000000000000000000000000000000081525060069080519060200190620001e1929190620001f0565b50600060098190555062000305565b828054620001fe90620002a0565b90600052602060002090601f0160209004810192826200022257600085556200026e565b82601f106200023d57805160ff19168380011785556200026e565b828001600101855582156200026e579182015b828111156200026d57825182559160200191906001019062000250565b5b5090506200027d919062000281565b5090565b5b808211156200029c57600081600090555060010162000282565b5090565b60006002820490506001821680620002b957607f821691505b60208210811415620002d057620002cf620002d6565b5b50919050565b7f4e487b7100000000000000000000000000000000000000000000000000000000600052602260045260246000fd5b614a9a80620003156000396000f3fe60806040526004361061014b5760003560e01c8063860d248a116100b6578063c87b56dd1161006f578063c87b56dd14610498578063d0def521146104d5578063e00ae14e146104fe578063e985e9c51461053b578063f2fde38b14610578578063f3fe3bc3146105a15761014b565b8063860d248a1461039c5780638da5cb5b146103c757806395d89b41146103f2578063a22cb4651461041d578063b88d4fde14610446578063b988693e1461046f5761014b565b80632a40ad48116101085780632a40ad4814610284578063379607f5146102c157806342842e0e146102dd57806359d667a5146103065780636352211e1461032257806370a082311461035f5761014b565b806301ffc9a71461015057806306fdde031461018d578063081812fc146101b8578063095ea7b3146101f55780631e4ef18c1461021e57806323b872dd1461025b575b600080fd5b34801561015c57600080fd5b5061017760048036038101906101729190613d6a565b6105cc565b60405161018491906143cc565b60405180910390f35b34801561019957600080fd5b506101a2610633565b6040516101af91906143e7565b60405180910390f35b3480156101c457600080fd5b506101df60048036038101906101da9190613dc4565b6106c5565b6040516101ec91906142d6565b60405180910390f35b34801561020157600080fd5b5061021c60048036038101906102179190613d2a565b6107e0565b005b34801561022a57600080fd5b5061024560048036038101906102409190613dc4565b610bc3565b6040516102529190614366565b60405180910390f35b34801561026757600080fd5b50610282600480360381019061027d9190613baf565b610f76565b005b34801561029057600080fd5b506102ab60048036038101906102a69190613b02565b6113c8565b6040516102b89190614388565b60405180910390f35b6102db60048036038101906102d69190613dc4565b611669565b005b3480156102e957600080fd5b5061030460048036038101906102ff9190613baf565b611ae6565b005b610320600480360381019061031b9190613b2f565b611b06565b005b34801561032e57600080fd5b5061034960048036038101906103449190613dc4565b611de0565b60405161035691906142d6565b60405180910390f35b34801561036b57600080fd5b5061038660048036038101906103819190613b02565b611ec6565b60405161039391906144e9565b60405180910390f35b3480156103a857600080fd5b506103b1611f80565b6040516103be91906143e7565b60405180910390f35b3480156103d357600080fd5b506103dc611fb9565b6040516103e991906142d6565b60405180910390f35b3480156103fe57600080fd5b50610407611fdf565b60405161041491906143e7565b60405180910390f35b34801561042957600080fd5b50610444600480360381019061043f9190613c8a565b612071565b005b34801561045257600080fd5b5061046d60048036038101906104689190613c02565b61216e565b005b34801561047b57600080fd5b5061049660048036038101906104919190613df1565b6121c5565b005b3480156104a457600080fd5b506104bf60048036038101906104ba9190613dc4565b612385565b6040516104cc91906143e7565b60405180910390f35b3480156104e157600080fd5b506104fc60048036038101906104f79190613cca565b612508565b005b34801561050a57600080fd5b5061052560048036038101906105209190613b02565b6126b2565b60405161053291906143aa565b60405180910390f35b34801561054757600080fd5b50610562600480360381019061055d9190613b6f565b61288c565b60405161056f91906143cc565b60405180910390f35b34801561058457600080fd5b5061059f600480360381019061059a9190613b02565b612920565b005b3480156105ad57600080fd5b506105b6612b52565b6040516105c391906143e7565b60405180910390f35b6000806000837bffffffffffffffffffffffffffffffffffffffffffffffffffffffff19167bffffffffffffffffffffffffffffffffffffffffffffffffffffffff1916815260200190815260200160002060009054906101000a900460ff169050919050565b60606005805461064290614771565b80601f016020809104026020016040519081016040528092919081815260200182805461066e90614771565b80156106bb5780601f10610690576101008083540402835291602001916106bb565b820191906000526020600020905b81548152906001019060200180831161069e57829003601f168201915b5050505050905090565b600081600073ffffffffffffffffffffffffffffffffffffffff166001600083815260200190815260200160002060009054906101000a900473ffffffffffffffffffffffffffffffffffffffff1673ffffffffffffffffffffffffffffffffffffffff1614156040518060400160405280600681526020017f3030333030320000000000000000000000000000000000000000000000000000815250906107a3576040517f08c379a000000000000000000000000000000000000000000000000000000000815260040161079a91906143e7565b60405180910390fd5b506002600084815260200190815260200160002060009054906101000a900473ffffffffffffffffffffffffffffffffffffffff16915050919050565b8060006001600083815260200190815260200160002060009054906101000a900473ffffffffffffffffffffffffffffffffffffffff1690503373ffffffffffffffffffffffffffffffffffffffff168173ffffffffffffffffffffffffffffffffffffffff1614806108d95750600460008273ffffffffffffffffffffffffffffffffffffffff1673ffffffffffffffffffffffffffffffffffffffff16815260200190815260200160002060003373ffffffffffffffffffffffffffffffffffffffff1673ffffffffffffffffffffffffffffffffffffffff16815260200190815260200160002060009054906101000a900460ff165b6040518060400160405280600681526020017f303033303033000000000000000000000000000000000000000000000000000081525090610950576040517f08c379a000000000000000000000000000000000000000000000000000000000815260040161094791906143e7565b60405180910390fd5b5082600073ffffffffffffffffffffffffffffffffffffffff166001600083815260200190815260200160002060009054906101000a900473ffffffffffffffffffffffffffffffffffffffff1673ffffffffffffffffffffffffffffffffffffffff1614156040518060400160405280600681526020017f303033303032000000000000000000000000000000000000000000000000000081525090610a2d576040517f08c379a0000000000000000000000000000000000000000000000000000000008152600401610a2491906143e7565b60405180910390fd5b5060006001600086815260200190815260200160002060009054906101000a900473ffffffffffffffffffffffffffffffffffffffff1690508073ffffffffffffffffffffffffffffffffffffffff168673ffffffffffffffffffffffffffffffffffffffff1614156040518060400160405280600681526020017f303033303038000000000000000000000000000000000000000000000000000081525090610b0d576040517f08c379a0000000000000000000000000000000000000000000000000000000008152600401610b0491906143e7565b60405180910390fd5b50856002600087815260200190815260200160002060006101000a81548173ffffffffffffffffffffffffffffffffffffffff021916908373ffffffffffffffffffffffffffffffffffffffff160217905550848673ffffffffffffffffffffffffffffffffffffffff168273ffffffffffffffffffffffffffffffffffffffff167f8c5be1e5ebec7d5bd14f71427d1e84f3dd0314c0f7b2291e5b200ac8c7c3b92560405160405180910390a4505050505050565b6060600060095467ffffffffffffffff811115610be357610be2614879565b5b604051908082528060200260200182016040528015610c1c57816020015b610c096138c6565b815260200190600190039081610c015790505b5090506000805b600954811015610c65576000838281518110610c4257610c4161484a565b5b602002602001015160000181815250508080610c5d906147a3565b915050610c23565b5060005b600954811015610f6b5760011515600a600083815260200190815260200160002060009054906101000a900460ff161515148015610cc55750600b6000600183610cb391906145f8565b81526020019081526020016000205485115b8015610cef5750600c6000600183610cdd91906145f8565b81526020019081526020016000205485105b15610f5857600181610d0191906145f8565b838381518110610d1457610d1361484a565b5b6020026020010151600001818152505060076000600183610d3591906145f8565b81526020019081526020016000208054610d4e90614771565b80601f0160208091040260200160405190810160405280929190818152602001828054610d7a90614771565b8015610dc75780601f10610d9c57610100808354040283529160200191610dc7565b820191906000526020600020905b815481529060010190602001808311610daa57829003601f168201915b5050505050838381518110610ddf57610dde61484a565b5b602002602001015160200181905250600b6000600183610dff91906145f8565b815260200190815260200160002054838381518110610e2157610e2061484a565b5b60200260200101516040018181525050600c6000600183610e4291906145f8565b815260200190815260200160002054838381518110610e6457610e6361484a565b5b60200260200101516060018181525050600d6000600183610e8591906145f8565b815260200190815260200160002054838381518110610ea757610ea661484a565b5b60200260200101516080018181525050600e6000600183610ec891906145f8565b815260200190815260200160002060009054906101000a900473ffffffffffffffffffffffffffffffffffffffff16838381518110610f0a57610f0961484a565b5b602002602001015160a0019073ffffffffffffffffffffffffffffffffffffffff16908173ffffffffffffffffffffffffffffffffffffffff1681525050600182610f5591906145f8565b91505b8080610f63906147a3565b915050610c69565b508192505050919050565b8060006001600083815260200190815260200160002060009054906101000a900473ffffffffffffffffffffffffffffffffffffffff1690503373ffffffffffffffffffffffffffffffffffffffff168173ffffffffffffffffffffffffffffffffffffffff16148061104757503373ffffffffffffffffffffffffffffffffffffffff166002600084815260200190815260200160002060009054906101000a900473ffffffffffffffffffffffffffffffffffffffff1673ffffffffffffffffffffffffffffffffffffffff16145b806110d85750600460008273ffffffffffffffffffffffffffffffffffffffff1673ffffffffffffffffffffffffffffffffffffffff16815260200190815260200160002060003373ffffffffffffffffffffffffffffffffffffffff1673ffffffffffffffffffffffffffffffffffffffff16815260200190815260200160002060009054906101000a900460ff165b6040518060400160405280600681526020017f30303330303400000000000000000000000000000000000000000000000000008152509061114f576040517f08c379a000000000000000000000000000000000000000000000000000000000815260040161114691906143e7565b60405180910390fd5b5082600073ffffffffffffffffffffffffffffffffffffffff166001600083815260200190815260200160002060009054906101000a900473ffffffffffffffffffffffffffffffffffffffff1673ffffffffffffffffffffffffffffffffffffffff1614156040518060400160405280600681526020017f30303330303200000000000000000000000000000000000000000000000000008152509061122c576040517f08c379a000000000000000000000000000000000000000000000000000000000815260040161122391906143e7565b60405180910390fd5b5060006001600086815260200190815260200160002060009054906101000a900473ffffffffffffffffffffffffffffffffffffffff1690508673ffffffffffffffffffffffffffffffffffffffff168173ffffffffffffffffffffffffffffffffffffffff16146040518060400160405280600681526020017f30303330303700000000000000000000000000000000000000000000000000008152509061130b576040517f08c379a000000000000000000000000000000000000000000000000000000000815260040161130291906143e7565b60405180910390fd5b50600073ffffffffffffffffffffffffffffffffffffffff168673ffffffffffffffffffffffffffffffffffffffff1614156040518060400160405280600681526020017f3030333030310000000000000000000000000000000000000000000000000000815250906113b4576040517f08c379a00000000000000000000000000000000000000000000000000000000081526004016113ab91906143e7565b60405180910390fd5b506113bf8686612b8b565b50505050505050565b6060600060095467ffffffffffffffff8111156113e8576113e7614879565b5b60405190808252806020026020018201604052801561142157816020015b61140e613912565b8152602001906001900390816114065790505b50905060005b6009548110156114695760008282815181106114465761144561484a565b5b602002602001015160000181815250508080611461906147a3565b915050611427565b506000805b60095481101561165e578473ffffffffffffffffffffffffffffffffffffffff16600160006001846114a091906145f8565b815260200190815260200160002060009054906101000a900473ffffffffffffffffffffffffffffffffffffffff1673ffffffffffffffffffffffffffffffffffffffff16141561164b576001816114f891906145f8565b83838151811061150b5761150a61484a565b5b602002602001015160000181815250506007600060018361152c91906145f8565b8152602001908152602001600020805461154590614771565b80601f016020809104026020016040519081016040528092919081815260200182805461157190614771565b80156115be5780601f10611593576101008083540402835291602001916115be565b820191906000526020600020905b8154815290600101906020018083116115a157829003601f168201915b50505050508383815181106115d6576115d561484a565b5b602002602001015160200181905250600a60006001836115f691906145f8565b815260200190815260200160002060009054906101000a900460ff168383815181106116255761162461484a565b5b6020026020010151604001901515908115158152505060018261164891906145f8565b91505b8080611656906147a3565b91505061146e565b508192505050919050565b6000429050600c6000838152602001908152602001600020548110156116c4576040517f08c379a00000000000000000000000000000000000000000000000000000000081526004016116bb90614469565b60405180910390fd5b60011515600a600084815260200190815260200160002060009054906101000a900460ff1615151461172b576040517f08c379a000000000000000000000000000000000000000000000000000000000815260040161172290614489565b60405180910390fd5b600e600083815260200190815260200160002060009054906101000a900473ffffffffffffffffffffffffffffffffffffffff1673ffffffffffffffffffffffffffffffffffffffff163373ffffffffffffffffffffffffffffffffffffffff16146117cc576040517f08c379a00000000000000000000000000000000000000000000000000000000081526004016117c3906144a9565b60405180910390fd5b6000600a600084815260200190815260200160002060006101000a81548160ff0219169083151502179055507fdaec4582d5d9595688c8c98545fdd1c696d41c6aeaeb636737e84ed2f5c00eda600e600084815260200190815260200160002060009054906101000a900473ffffffffffffffffffffffffffffffffffffffff16600d60008581526020019081526020016000205460405161186f9291906142f1565b60405180910390a1600f600083815260200190815260200160002060009054906101000a900473ffffffffffffffffffffffffffffffffffffffff1673ffffffffffffffffffffffffffffffffffffffff166108fc600d6000858152602001908152602001600020549081150290604051600060405180830381858888f19350505050158015611903573d6000803e3d6000fd5b50600f600083815260200190815260200160002060009054906101000a900473ffffffffffffffffffffffffffffffffffffffff1673ffffffffffffffffffffffffffffffffffffffff16600e600084815260200190815260200160002060009054906101000a900473ffffffffffffffffffffffffffffffffffffffff1673ffffffffffffffffffffffffffffffffffffffff1614611ae25760006001600084815260200190815260200160002060009054906101000a900473ffffffffffffffffffffffffffffffffffffffff1690506002600084815260200190815260200160002060006101000a81549073ffffffffffffffffffffffffffffffffffffffff0219169055611a158184612c40565b611a52600e600085815260200190815260200160002060009054906101000a900473ffffffffffffffffffffffffffffffffffffffff1684612dab565b82600e600085815260200190815260200160002060009054906101000a900473ffffffffffffffffffffffffffffffffffffffff1673ffffffffffffffffffffffffffffffffffffffff168273ffffffffffffffffffffffffffffffffffffffff167fddf252ad1be2c89b69c2b068fc378daa952ba7f163c4a11628f55a4df523b3ef60405160405180910390a4505b5050565b611b0183838360405180602001604052806000815250612f33565b505050565b60004290506000349050600b600084815260200190815260200160002054821015611b66576040517f08c379a0000000000000000000000000000000000000000000000000000000008152600401611b5d90614409565b60405180910390fd5b600c6000848152602001908152602001600020548210611bbb576040517f08c379a0000000000000000000000000000000000000000000000000000000008152600401611bb290614429565b60405180910390fd5b600d6000848152602001908152602001600020548111611c10576040517f08c379a0000000000000000000000000000000000000000000000000000000008152600401611c0790614449565b60405180910390fd5b600f600084815260200190815260200160002060009054906101000a900473ffffffffffffffffffffffffffffffffffffffff1673ffffffffffffffffffffffffffffffffffffffff16600e600085815260200190815260200160002060009054906101000a900473ffffffffffffffffffffffffffffffffffffffff1673ffffffffffffffffffffffffffffffffffffffff1614611d3757600e600084815260200190815260200160002060009054906101000a900473ffffffffffffffffffffffffffffffffffffffff1673ffffffffffffffffffffffffffffffffffffffff166108fc600d6000868152602001908152602001600020549081150290604051600060405180830381858888f19350505050158015611d35573d6000803e3d6000fd5b505b80600d60008581526020019081526020016000208190555083600e600085815260200190815260200160002060006101000a81548173ffffffffffffffffffffffffffffffffffffffff021916908373ffffffffffffffffffffffffffffffffffffffff1602179055507f71f2b5204d232e8ce0cd94acd5274897c8391865d731ad8cfb7306a5a617dc938482604051611dd29291906142f1565b60405180910390a150505050565b60006001600083815260200190815260200160002060009054906101000a900473ffffffffffffffffffffffffffffffffffffffff169050600073ffffffffffffffffffffffffffffffffffffffff168173ffffffffffffffffffffffffffffffffffffffff1614156040518060400160405280600681526020017f303033303032000000000000000000000000000000000000000000000000000081525090611ec0576040517f08c379a0000000000000000000000000000000000000000000000000000000008152600401611eb791906143e7565b60405180910390fd5b50919050565b60008073ffffffffffffffffffffffffffffffffffffffff168273ffffffffffffffffffffffffffffffffffffffff1614156040518060400160405280600681526020017f303033303031000000000000000000000000000000000000000000000000000081525090611f6f576040517f08c379a0000000000000000000000000000000000000000000000000000000008152600401611f6691906143e7565b60405180910390fd5b50611f7982613501565b9050919050565b6040518060400160405280600681526020017f303138303032000000000000000000000000000000000000000000000000000081525081565b600860009054906101000a900473ffffffffffffffffffffffffffffffffffffffff1681565b606060068054611fee90614771565b80601f016020809104026020016040519081016040528092919081815260200182805461201a90614771565b80156120675780601f1061203c57610100808354040283529160200191612067565b820191906000526020600020905b81548152906001019060200180831161204a57829003601f168201915b5050505050905090565b80600460003373ffffffffffffffffffffffffffffffffffffffff1673ffffffffffffffffffffffffffffffffffffffff16815260200190815260200160002060008473ffffffffffffffffffffffffffffffffffffffff1673ffffffffffffffffffffffffffffffffffffffff16815260200190815260200160002060006101000a81548160ff0219169083151502179055508173ffffffffffffffffffffffffffffffffffffffff163373ffffffffffffffffffffffffffffffffffffffff167f17307eab39ab6107e8899845ad3d59bd9653f200f220920489ca2b5937696c318360405161216291906143cc565b60405180910390a35050565b6121be85858585858080601f016020809104026020016040519081016040528093929190818152602001838380828437600081840152601f19601f82011690508083019250505050505050612f33565b5050505050565b60004290508086116121d657600080fd5b8486106121e257600080fd5b600084116121ef57600080fd5b6009548411156121fe57600080fd5b60001515600a600086815260200190815260200160002060009054906101000a900460ff16151514612265576040517f08c379a000000000000000000000000000000000000000000000000000000000815260040161225c906144c9565b60405180910390fd5b6001600a600086815260200190815260200160002060006101000a81548160ff02191690831515021790555085600b60008681526020019081526020016000208190555084600c60008681526020019081526020016000208190555082600d60008681526020019081526020016000208190555081600f600086815260200190815260200160002060006101000a81548173ffffffffffffffffffffffffffffffffffffffff021916908373ffffffffffffffffffffffffffffffffffffffff16021790555081600e600086815260200190815260200160002060006101000a81548173ffffffffffffffffffffffffffffffffffffffff021916908373ffffffffffffffffffffffffffffffffffffffff160217905550505050505050565b606081600073ffffffffffffffffffffffffffffffffffffffff166001600083815260200190815260200160002060009054906101000a900473ffffffffffffffffffffffffffffffffffffffff1673ffffffffffffffffffffffffffffffffffffffff1614156040518060400160405280600681526020017f303033303032000000000000000000000000000000000000000000000000000081525090612463576040517f08c379a000000000000000000000000000000000000000000000000000000000815260040161245a91906143e7565b60405180910390fd5b5060076000848152602001908152602001600020805461248290614771565b80601f01602080910402602001604051908101604052809291908181526020018280546124ae90614771565b80156124fb5780601f106124d0576101008083540402835291602001916124fb565b820191906000526020600020905b8154815290600101906020018083116124de57829003601f168201915b5050505050915050919050565b600860009054906101000a900473ffffffffffffffffffffffffffffffffffffffff1673ffffffffffffffffffffffffffffffffffffffff163373ffffffffffffffffffffffffffffffffffffffff16146040518060400160405280600681526020017f3031383030310000000000000000000000000000000000000000000000000000815250906125d0576040517f08c379a00000000000000000000000000000000000000000000000000000000081526004016125c791906143e7565b60405180910390fd5b50600960008154809291906125e4906147a3565b91905055506125f58360095461354a565b61264560095483838080601f016020809104026020016040519081016040528093929190818152602001838380828437600081840152601f19601f82011690508083019250505050505050613738565b6000600a6000600954815260200190815260200160002060006101000a81548160ff021916908315150217905550600042905080600c600060095481526020019081526020016000208190555080600b600060095481526020019081526020016000208190555050505050565b6060600060095467ffffffffffffffff8111156126d2576126d1614879565b5b6040519080825280602002602001820160405280156127005781602001602082028036833780820191505090505b50905060005b6009548110156127445760008282815181106127255761272461484a565b5b602002602001018181525050808061273c906147a3565b915050612706565b5060008042905060005b6009548110156128805760011515600a600060018461276d91906145f8565b815260200190815260200160002060009054906101000a900460ff16151514801561282c57508573ffffffffffffffffffffffffffffffffffffffff16600e60006001846127bb91906145f8565b815260200190815260200160002060009054906101000a900473ffffffffffffffffffffffffffffffffffffffff1673ffffffffffffffffffffffffffffffffffffffff1614801561282b5750600c600060018361281991906145f8565b81526020019081526020016000205482115b5b1561286d5760018161283e91906145f8565b8484815181106128515761285061484a565b5b60200260200101818152505060018361286a91906145f8565b92505b8080612878906147a3565b91505061274e565b50829350505050919050565b6000600460008473ffffffffffffffffffffffffffffffffffffffff1673ffffffffffffffffffffffffffffffffffffffff16815260200190815260200160002060008373ffffffffffffffffffffffffffffffffffffffff1673ffffffffffffffffffffffffffffffffffffffff16815260200190815260200160002060009054906101000a900460ff16905092915050565b600860009054906101000a900473ffffffffffffffffffffffffffffffffffffffff1673ffffffffffffffffffffffffffffffffffffffff163373ffffffffffffffffffffffffffffffffffffffff16146040518060400160405280600681526020017f3031383030310000000000000000000000000000000000000000000000000000815250906129e8576040517f08c379a00000000000000000000000000000000000000000000000000000000081526004016129df91906143e7565b60405180910390fd5b50600073ffffffffffffffffffffffffffffffffffffffff168173ffffffffffffffffffffffffffffffffffffffff1614156040518060400160405280600681526020017f303138303032000000000000000000000000000000000000000000000000000081525090612a91576040517f08c379a0000000000000000000000000000000000000000000000000000000008152600401612a8891906143e7565b60405180910390fd5b508073ffffffffffffffffffffffffffffffffffffffff16600860009054906101000a900473ffffffffffffffffffffffffffffffffffffffff1673ffffffffffffffffffffffffffffffffffffffff167f8be0079c531659141344cd1fd0a4f28419497f9722a3daafe3b4186f6b6457e060405160405180910390a380600860006101000a81548173ffffffffffffffffffffffffffffffffffffffff021916908373ffffffffffffffffffffffffffffffffffffffff16021790555050565b6040518060400160405280600681526020017f303138303031000000000000000000000000000000000000000000000000000081525081565b60006001600083815260200190815260200160002060009054906101000a900473ffffffffffffffffffffffffffffffffffffffff169050612bcc82613842565b612bd68183612c40565b612be08383612dab565b818373ffffffffffffffffffffffffffffffffffffffff168273ffffffffffffffffffffffffffffffffffffffff167fddf252ad1be2c89b69c2b068fc378daa952ba7f163c4a11628f55a4df523b3ef60405160405180910390a4505050565b8173ffffffffffffffffffffffffffffffffffffffff166001600083815260200190815260200160002060009054906101000a900473ffffffffffffffffffffffffffffffffffffffff1673ffffffffffffffffffffffffffffffffffffffff16146040518060400160405280600681526020017f303033303037000000000000000000000000000000000000000000000000000081525090612d19576040517f08c379a0000000000000000000000000000000000000000000000000000000008152600401612d1091906143e7565b60405180910390fd5b506001600360008473ffffffffffffffffffffffffffffffffffffffff1673ffffffffffffffffffffffffffffffffffffffff1681526020019081526020016000206000828254612d6a919061464e565b925050819055506001600082815260200190815260200160002060006101000a81549073ffffffffffffffffffffffffffffffffffffffff02191690555050565b600073ffffffffffffffffffffffffffffffffffffffff166001600083815260200190815260200160002060009054906101000a900473ffffffffffffffffffffffffffffffffffffffff1673ffffffffffffffffffffffffffffffffffffffff16146040518060400160405280600681526020017f303033303036000000000000000000000000000000000000000000000000000081525090612e85576040517f08c379a0000000000000000000000000000000000000000000000000000000008152600401612e7c91906143e7565b60405180910390fd5b50816001600083815260200190815260200160002060006101000a81548173ffffffffffffffffffffffffffffffffffffffff021916908373ffffffffffffffffffffffffffffffffffffffff1602179055506001600360008473ffffffffffffffffffffffffffffffffffffffff1673ffffffffffffffffffffffffffffffffffffffff1681526020019081526020016000206000828254612f2891906145f8565b925050819055505050565b8160006001600083815260200190815260200160002060009054906101000a900473ffffffffffffffffffffffffffffffffffffffff1690503373ffffffffffffffffffffffffffffffffffffffff168173ffffffffffffffffffffffffffffffffffffffff16148061300457503373ffffffffffffffffffffffffffffffffffffffff166002600084815260200190815260200160002060009054906101000a900473ffffffffffffffffffffffffffffffffffffffff1673ffffffffffffffffffffffffffffffffffffffff16145b806130955750600460008273ffffffffffffffffffffffffffffffffffffffff1673ffffffffffffffffffffffffffffffffffffffff16815260200190815260200160002060003373ffffffffffffffffffffffffffffffffffffffff1673ffffffffffffffffffffffffffffffffffffffff16815260200190815260200160002060009054906101000a900460ff165b6040518060400160405280600681526020017f30303330303400000000000000000000000000000000000000000000000000008152509061310c576040517f08c379a000000000000000000000000000000000000000000000000000000000815260040161310391906143e7565b60405180910390fd5b5083600073ffffffffffffffffffffffffffffffffffffffff166001600083815260200190815260200160002060009054906101000a900473ffffffffffffffffffffffffffffffffffffffff1673ffffffffffffffffffffffffffffffffffffffff1614156040518060400160405280600681526020017f3030333030320000000000000000000000000000000000000000000000000000815250906131e9576040517f08c379a00000000000000000000000000000000000000000000000000000000081526004016131e091906143e7565b60405180910390fd5b5060006001600087815260200190815260200160002060009054906101000a900473ffffffffffffffffffffffffffffffffffffffff1690508773ffffffffffffffffffffffffffffffffffffffff168173ffffffffffffffffffffffffffffffffffffffff16146040518060400160405280600681526020017f3030333030370000000000000000000000000000000000000000000000000000815250906132c8576040517f08c379a00000000000000000000000000000000000000000000000000000000081526004016132bf91906143e7565b60405180910390fd5b50600073ffffffffffffffffffffffffffffffffffffffff168773ffffffffffffffffffffffffffffffffffffffff1614156040518060400160405280600681526020017f303033303031000000000000000000000000000000000000000000000000000081525090613371576040517f08c379a000000000000000000000000000000000000000000000000000000000815260040161336891906143e7565b60405180910390fd5b5061337c8787612b8b565b61339b8773ffffffffffffffffffffffffffffffffffffffff1661387b565b156134f75760008773ffffffffffffffffffffffffffffffffffffffff1663150b7a02338b8a8a6040518563ffffffff1660e01b81526004016133e1949392919061431a565b602060405180830381600087803b1580156133fb57600080fd5b505af115801561340f573d6000803e3d6000fd5b505050506040513d601f19601f820116820180604052508101906134339190613d97565b905063150b7a0260e01b7bffffffffffffffffffffffffffffffffffffffffffffffffffffffff1916817bffffffffffffffffffffffffffffffffffffffffffffffffffffffff1916146040518060400160405280600681526020017f3030333030350000000000000000000000000000000000000000000000000000815250906134f4576040517f08c379a00000000000000000000000000000000000000000000000000000000081526004016134eb91906143e7565b60405180910390fd5b50505b5050505050505050565b6000600360008373ffffffffffffffffffffffffffffffffffffffff1673ffffffffffffffffffffffffffffffffffffffff168152602001908152602001600020549050919050565b600073ffffffffffffffffffffffffffffffffffffffff168273ffffffffffffffffffffffffffffffffffffffff1614156040518060400160405280600681526020017f3030333030310000000000000000000000000000000000000000000000000000815250906135f2576040517f08c379a00000000000000000000000000000000000000000000000000000000081526004016135e991906143e7565b60405180910390fd5b50600073ffffffffffffffffffffffffffffffffffffffff166001600083815260200190815260200160002060009054906101000a900473ffffffffffffffffffffffffffffffffffffffff1673ffffffffffffffffffffffffffffffffffffffff16146040518060400160405280600681526020017f3030333030360000000000000000000000000000000000000000000000000000815250906136cd576040517f08c379a00000000000000000000000000000000000000000000000000000000081526004016136c491906143e7565b60405180910390fd5b506136d88282612dab565b808273ffffffffffffffffffffffffffffffffffffffff16600073ffffffffffffffffffffffffffffffffffffffff167fddf252ad1be2c89b69c2b068fc378daa952ba7f163c4a11628f55a4df523b3ef60405160405180910390a45050565b81600073ffffffffffffffffffffffffffffffffffffffff166001600083815260200190815260200160002060009054906101000a900473ffffffffffffffffffffffffffffffffffffffff1673ffffffffffffffffffffffffffffffffffffffff1614156040518060400160405280600681526020017f303033303032000000000000000000000000000000000000000000000000000081525090613814576040517f08c379a000000000000000000000000000000000000000000000000000000000815260040161380b91906143e7565b60405180910390fd5b508160076000858152602001908152602001600020908051906020019061383c929190613935565b50505050565b6002600082815260200190815260200160002060006101000a81549073ffffffffffffffffffffffffffffffffffffffff021916905550565b60008060007fc5d2460186f7233c927e7db2dcc703c0e500b653ca82273b7bfad8045d85a47060001b9050833f91506000801b82141580156138bd5750808214155b92505050919050565b6040518060c001604052806000815260200160608152602001600081526020016000815260200160008152602001600073ffffffffffffffffffffffffffffffffffffffff1681525090565b604051806060016040528060008152602001606081526020016000151581525090565b82805461394190614771565b90600052602060002090601f01602090048101928261396357600085556139aa565b82601f1061397c57805160ff19168380011785556139aa565b828001600101855582156139aa579182015b828111156139a957825182559160200191906001019061398e565b5b5090506139b791906139bb565b5090565b5b808211156139d45760008160009055506001016139bc565b5090565b6000813590506139e7816149f1565b92915050565b6000813590506139fc81614a08565b92915050565b600081359050613a1181614a1f565b92915050565b600081359050613a2681614a36565b92915050565b600081519050613a3b81614a36565b92915050565b60008083601f840112613a5757613a566148ad565b5b8235905067ffffffffffffffff811115613a7457613a736148a8565b5b602083019150836001820283011115613a9057613a8f6148b2565b5b9250929050565b60008083601f840112613aad57613aac6148ad565b5b8235905067ffffffffffffffff811115613aca57613ac96148a8565b5b602083019150836001820283011115613ae657613ae56148b2565b5b9250929050565b600081359050613afc81614a4d565b92915050565b600060208284031215613b1857613b176148bc565b5b6000613b26848285016139d8565b91505092915050565b60008060408385031215613b4657613b456148bc565b5b6000613b54858286016139ed565b9250506020613b6585828601613aed565b9150509250929050565b60008060408385031215613b8657613b856148bc565b5b6000613b94858286016139d8565b9250506020613ba5858286016139d8565b9150509250929050565b600080600060608486031215613bc857613bc76148bc565b5b6000613bd6868287016139d8565b9350506020613be7868287016139d8565b9250506040613bf886828701613aed565b9150509250925092565b600080600080600060808688031215613c1e57613c1d6148bc565b5b6000613c2c888289016139d8565b9550506020613c3d888289016139d8565b9450506040613c4e88828901613aed565b935050606086013567ffffffffffffffff811115613c6f57613c6e6148b7565b5b613c7b88828901613a41565b92509250509295509295909350565b60008060408385031215613ca157613ca06148bc565b5b6000613caf858286016139d8565b9250506020613cc085828601613a02565b9150509250929050565b600080600060408486031215613ce357613ce26148bc565b5b6000613cf1868287016139d8565b935050602084013567ffffffffffffffff811115613d1257613d116148b7565b5b613d1e86828701613a97565b92509250509250925092565b60008060408385031215613d4157613d406148bc565b5b6000613d4f858286016139d8565b9250506020613d6085828601613aed565b9150509250929050565b600060208284031215613d8057613d7f6148bc565b5b6000613d8e84828501613a17565b91505092915050565b600060208284031215613dad57613dac6148bc565b5b6000613dbb84828501613a2c565b91505092915050565b600060208284031215613dda57613dd96148bc565b5b6000613de884828501613aed565b91505092915050565b600080600080600060a08688031215613e0d57613e0c6148bc565b5b6000613e1b88828901613aed565b9550506020613e2c88828901613aed565b9450506040613e3d88828901613aed565b9350506060613e4e88828901613aed565b9250506080613e5f888289016139ed565b9150509295509295909350565b6000613e7883836141df565b905092915050565b6000613e8c8383614268565b905092915050565b6000613ea083836142b8565b60208301905092915050565b613eb581614708565b82525050565b613ec481614682565b82525050565b613ed381614682565b82525050565b6000613ee482614534565b613eee8185614592565b935083602082028501613f0085614504565b8060005b85811015613f3c5784840389528151613f1d8582613e6c565b9450613f288361456b565b925060208a01995050600181019050613f04565b50829750879550505050505092915050565b6000613f598261453f565b613f6381856145a3565b935083602082028501613f7585614514565b8060005b85811015613fb15784840389528151613f928582613e80565b9450613f9d83614578565b925060208a01995050600181019050613f79565b50829750879550505050505092915050565b6000613fce8261454a565b613fd881856145b4565b9350613fe383614524565b8060005b83811015614014578151613ffb8882613e94565b975061400683614585565b925050600181019050613fe7565b5085935050505092915050565b61402a816146a6565b82525050565b614039816146a6565b82525050565b600061404a82614555565b61405481856145c5565b935061406481856020860161473e565b61406d816148c1565b840191505092915050565b600061408382614560565b61408d81856145d6565b935061409d81856020860161473e565b6140a6816148c1565b840191505092915050565b60006140bc82614560565b6140c681856145e7565b93506140d681856020860161473e565b6140df816148c1565b840191505092915050565b60006140f76015836145e7565b9150614102826148d2565b602082019050919050565b600061411a6016836145e7565b9150614125826148fb565b602082019050919050565b600061413d601e836145e7565b915061414882614924565b602082019050919050565b60006141606016836145e7565b915061416b8261494d565b602082019050919050565b60006141836015836145e7565b915061418e82614976565b602082019050919050565b60006141a66014836145e7565b91506141b18261499f565b602082019050919050565b60006141c96011836145e7565b91506141d4826149c8565b602082019050919050565b600060c0830160008301516141f760008601826142b8565b506020830151848203602086015261420f8282614078565b915050604083015161422460408601826142b8565b50606083015161423760608601826142b8565b50608083015161424a60808601826142b8565b5060a083015161425d60a0860182613ebb565b508091505092915050565b600060608301600083015161428060008601826142b8565b50602083015184820360208601526142988282614078565b91505060408301516142ad6040860182614021565b508091505092915050565b6142c1816146fe565b82525050565b6142d0816146fe565b82525050565b60006020820190506142eb6000830184613eca565b92915050565b60006040820190506143066000830185613eac565b61431360208301846142c7565b9392505050565b600060808201905061432f6000830187613eca565b61433c6020830186613eca565b61434960408301856142c7565b818103606083015261435b818461403f565b905095945050505050565b600060208201905081810360008301526143808184613ed9565b905092915050565b600060208201905081810360008301526143a28184613f4e565b905092915050565b600060208201905081810360008301526143c48184613fc3565b905092915050565b60006020820190506143e16000830184614030565b92915050565b6000602082019050818103600083015261440181846140b1565b905092915050565b60006020820190508181036000830152614422816140ea565b9050919050565b600060208201905081810360008301526144428161410d565b9050919050565b6000602082019050818103600083015261446281614130565b9050919050565b6000602082019050818103600083015261448281614153565b9050919050565b600060208201905081810360008301526144a281614176565b9050919050565b600060208201905081810360008301526144c281614199565b9050919050565b600060208201905081810360008301526144e2816141bc565b9050919050565b60006020820190506144fe60008301846142c7565b92915050565b6000819050602082019050919050565b6000819050602082019050919050565b6000819050602082019050919050565b600081519050919050565b600081519050919050565b600081519050919050565b600081519050919050565b600081519050919050565b6000602082019050919050565b6000602082019050919050565b6000602082019050919050565b600082825260208201905092915050565b600082825260208201905092915050565b600082825260208201905092915050565b600082825260208201905092915050565b600082825260208201905092915050565b600082825260208201905092915050565b6000614603826146fe565b915061460e836146fe565b9250827fffffffffffffffffffffffffffffffffffffffffffffffffffffffffffffffff03821115614643576146426147ec565b5b828201905092915050565b6000614659826146fe565b9150614664836146fe565b925082821015614677576146766147ec565b5b828203905092915050565b600061468d826146de565b9050919050565b600061469f826146de565b9050919050565b60008115159050919050565b60007fffffffff0000000000000000000000000000000000000000000000000000000082169050919050565b600073ffffffffffffffffffffffffffffffffffffffff82169050919050565b6000819050919050565b60006147138261471a565b9050919050565b60006147258261472c565b9050919050565b6000614737826146de565b9050919050565b60005b8381101561475c578082015181840152602081019050614741565b8381111561476b576000848401525b50505050565b6000600282049050600182168061478957607f821691505b6020821081141561479d5761479c61481b565b5b50919050565b60006147ae826146fe565b91507fffffffffffffffffffffffffffffffffffffffffffffffffffffffffffffffff8214156147e1576147e06147ec565b5b600182019050919050565b7f4e487b7100000000000000000000000000000000000000000000000000000000600052601160045260246000fd5b7f4e487b7100000000000000000000000000000000000000000000000000000000600052602260045260246000fd5b7f4e487b7100000000000000000000000000000000000000000000000000000000600052603260045260246000fd5b7f4e487b7100000000000000000000000000000000000000000000000000000000600052604160045260246000fd5b600080fd5b600080fd5b600080fd5b600080fd5b600080fd5b6000601f19601f8301169050919050565b7f41756374696f6e20737461727473206c617465722e0000000000000000000000600082015250565b7f41756374696f6e20616c726561647920656e6465642e00000000000000000000600082015250565b7f546865726520616c7265616479206973206120686967686572206269642e0000600082015250565b7f41756374696f6e206e6f742079657420656e6465642e00000000000000000000600082015250565b7f4974206973206e6f74206f6e2061756374696f6e2e0000000000000000000000600082015250565b7f596f752063616e6e6f7420636c61696d2069742e000000000000000000000000600082015250565b7f4974206973206f6e2061756374696f6e21000000000000000000000000000000600082015250565b6149fa81614682565b8114614a0557600080fd5b50565b614a1181614694565b8114614a1c57600080fd5b50565b614a28816146a6565b8114614a3357600080fd5b50565b614a3f816146b2565b8114614a4a57600080fd5b50565b614a56816146fe565b8114614a6157600080fd5b5056fea26469706673582212209856d6e335c51ba8a3ded0eae3152b4b92211ac86bb323c0284a6d1be245f3fe64736f6c63430008060033",
  "immutableReferences": {},
  "source": "// SPDX-License-Identifier: MIT\r\npragma solidity 0.8.6;\r\n\r\nimport \"../ethereum-erc721/src/contracts/tokens/nf-token-metadata.sol\";\r\nimport \"../ethereum-erc721/src/contracts/ownership/ownable.sol\";\r\n\r\n\r\ncontract Auction is NFTokenMetadata, Ownable {\r\n    \r\n    struct MyNftoken {\r\n        uint256 tokenid;\r\n        string uri;\r\n        bool on_auction;\r\n    }\r\n\r\n    struct AuctionInfo {\r\n        uint256 tokenid;\r\n        string uri;\r\n        uint begin_time;\r\n        uint end_time;\r\n        uint current_price;\r\n        address highest_bidder;\r\n    }\r\n\r\n    uint256 _tokenId;\r\n    mapping(uint256 =>bool) is_on_auction;\r\n    mapping(uint256 =>uint) auction_begin_time;\r\n    mapping(uint256 =>uint) auction_end_time;\r\n    mapping(uint256 =>uint) auction_price;\r\n    mapping(uint256 =>address payable) highest_bidder;\r\n    mapping(uint256 =>address payable) beneficiary;\r\n\r\n    event HighestPriceIncreased(address bidder, uint amount);\r\n    event AuctionEnded(address winner, uint amount);\r\n\r\n    constructor(){\r\n        nftName = \"3190104605\";\r\n        nftSymbol = \"zynm\";\r\n        _tokenId = 0;\r\n    }\r\n\r\n    function mint(address _to, string calldata _uri) external onlyOwner {\r\n        _tokenId++;\r\n        super._mint(_to, _tokenId);\r\n        super._setTokenUri(_tokenId, _uri);\r\n        is_on_auction[_tokenId] = false;\r\n        uint nowtime = block.timestamp;\r\n        auction_end_time[_tokenId] = nowtime;\r\n        auction_begin_time[_tokenId] = nowtime;\r\n    }\r\n\r\n    function showMyNFT( address _address ) public view returns (MyNftoken[] memory) {\r\n        MyNftoken[] memory count = new MyNftoken[](_tokenId);\r\n        for(uint256 i=0;i<_tokenId;i++){\r\n            count[i].tokenid = 0;\r\n        }\r\n        uint256 cou = 0;\r\n        for (uint256 index = 0; index < _tokenId ; index++) {\r\n           if( idToOwner[index+1] == _address ) {\r\n                count[cou].tokenid = index+1;\r\n                count[cou].uri = idToUri[index+1];\r\n                count[cou].on_auction = is_on_auction[index+1];\r\n                cou += 1;\r\n            }\r\n        }\r\n        return count;\r\n    }\r\n\r\n    function showClaim( address _address ) public view returns(uint256[] memory) {\r\n        uint256[] memory count = new uint256[](_tokenId);\r\n        for(uint256 i=0;i<_tokenId;i++){\r\n            count[i] = 0;\r\n        }\r\n        uint256 cou = 0;\r\n        uint nowtime = block.timestamp;\r\n        for (uint256 index = 0; index < _tokenId ; index++) {\r\n            if( is_on_auction[index+1] == true\r\n            && (highest_bidder[index+1] == _address\r\n            && nowtime > auction_end_time[index+1] )){\r\n                count[cou] = index+1;\r\n                cou += 1;\r\n            }\r\n        }\r\n        return count;\r\n    }\r\n\r\n    function showAuction(uint nowtime) public view returns (AuctionInfo[] memory) {\r\n        AuctionInfo[] memory count = new AuctionInfo[](_tokenId);\r\n        uint cou = 0;\r\n        for(uint256 i=0;i<_tokenId;i++){\r\n            count[i].tokenid = 0;\r\n        }\r\n        for(uint256 i=0;i<_tokenId;i++){\r\n            if( is_on_auction[i] == true\r\n                && nowtime > auction_begin_time[i+1]\r\n                && nowtime < auction_end_time[i+1]\r\n            ){\r\n                count[cou].tokenid = i+1;\r\n                count[cou].uri = idToUri[i+1];\r\n                count[cou].begin_time = auction_begin_time[i+1];\r\n                count[cou].end_time = auction_end_time[i+1];\r\n                count[cou].current_price = auction_price[i+1];\r\n                count[cou].highest_bidder = highest_bidder[i+1];\r\n                cou += 1;\r\n            }\r\n        }\r\n        return count;\r\n    }\r\n\r\n    function beginAuction( uint begin_time, uint end_time, uint256 token, uint start_price, address payable beginner ) public {\r\n        uint nowtime = block.timestamp;\r\n        require( begin_time > nowtime );\r\n        require( begin_time < end_time );\r\n        require( token >0 );\r\n        require( token <= _tokenId );\r\n        require( is_on_auction[token] == false, \"It is on auction!\");\r\n\r\n        is_on_auction[token] = true;\r\n        auction_begin_time[token] = begin_time;\r\n        auction_end_time[token] = end_time;\r\n        auction_price[token] = start_price;\r\n        beneficiary[token] = beginner;\r\n        highest_bidder[token] = beginner;\r\n    }\r\n\r\n    function bid( address payable bidder, uint256 token ) public payable {\r\n        uint nowtime = block.timestamp;\r\n        uint amount = msg.value;\r\n        require( nowtime >= auction_begin_time[token], \"Auction starts later.\" );\r\n        require( nowtime < auction_end_time[token], \"Auction already ended.\" );\r\n        require( amount > auction_price[token], \"There already is a higher bid.\" );\r\n        \r\n        if(highest_bidder[token] != beneficiary[token])\r\n            highest_bidder[token].transfer(auction_price[token]);\r\n        auction_price[token] = amount;\r\n        highest_bidder[token] = bidder;\r\n\r\n        emit HighestPriceIncreased( bidder, amount );\r\n    }\r\n\r\n    function claim( uint256 tokenid ) public payable {\r\n        uint nowtime = block.timestamp;\r\n        require( nowtime >= auction_end_time[tokenid], \"Auction not yet ended.\" );\r\n        require( is_on_auction[tokenid] == true , \"It is not on auction.\" );\r\n        require( msg.sender == highest_bidder[tokenid], \"You cannot claim it.\" );\r\n\r\n        is_on_auction[tokenid] = false;\r\n        emit AuctionEnded( highest_bidder[tokenid], auction_price[tokenid] );\r\n        beneficiary[tokenid].transfer(auction_price[tokenid]);\r\n        if(highest_bidder[tokenid] != beneficiary[tokenid]){\r\n            address from = idToOwner[tokenid];\r\n            delete idToApproval[tokenid];\r\n\r\n            _removeNFToken(from, tokenid);\r\n            _addNFToken(highest_bidder[tokenid], tokenid);\r\n\r\n            emit Transfer(from, highest_bidder[tokenid], tokenid);\r\n        }\r\n    }\r\n}\r\n\r\n",
  "sourcePath": "D:\\ZJU5\\\\\\hw\\contracts\\Auction.sol",
  "compiler": {
    "name": "solc",
    "version": "0.8.6+commit.11564f7e.Emscripten.clang"
  },
  "schemaVersion": "3.4.3",
  "updatedAt": "2021-11-03T15:40:43.418Z",
  "networkType": "ethereum",
  "devdoc": {
    "kind": "dev",
    "methods": {
      "approve(address,uint256)": {
        "details": "Set or reaffirm the approved address for an NFT. This function can be changed to payable.",
        "params": {
          "_approved": "Address to be approved for the given NFT ID.",
          "_tokenId": "ID of the token to be approved."
        }
      },
      "balanceOf(address)": {
        "details": "Returns the number of NFTs owned by `_owner`. NFTs assigned to the zero address are considered invalid, and this function throws for queries about the zero address.",
        "params": {
          "_owner": "Address for whom to query the balance."
        },
        "returns": {
          "_0": "Balance of _owner."
        }
      },
      "getApproved(uint256)": {
        "details": "Get the approved address for a single NFT.",
        "params": {
          "_tokenId": "ID of the NFT to query the approval of."
        },
        "returns": {
          "_0": "Address that _tokenId is approved for."
        }
      },
      "isApprovedForAll(address,address)": {
        "details": "Checks if `_operator` is an approved operator for `_owner`.",
        "params": {
          "_operator": "The address that acts on behalf of the owner.",
          "_owner": "The address that owns the NFTs."
        },
        "returns": {
          "_0": "True if approved for all, false otherwise."
        }
      },
      "name()": {
        "details": "Returns a descriptive name for a collection of NFTokens.",
        "returns": {
          "_name": "Representing name."
        }
      },
      "ownerOf(uint256)": {
        "details": "Returns the address of the owner of the NFT. NFTs assigned to the zero address are considered invalid, and queries about them do throw.",
        "params": {
          "_tokenId": "The identifier for an NFT."
        },
        "returns": {
          "_owner": "Address of _tokenId owner."
        }
      },
      "safeTransferFrom(address,address,uint256)": {
        "details": "Transfers the ownership of an NFT from one address to another address. This function can be changed to payable.",
        "params": {
          "_from": "The current owner of the NFT.",
          "_to": "The new owner.",
          "_tokenId": "The NFT to transfer."
        }
      },
      "safeTransferFrom(address,address,uint256,bytes)": {
        "details": "Transfers the ownership of an NFT from one address to another address. This function can be changed to payable.",
        "params": {
          "_data": "Additional data with no specified format, sent in call to `_to`.",
          "_from": "The current owner of the NFT.",
          "_to": "The new owner.",
          "_tokenId": "The NFT to transfer."
        }
      },
      "setApprovalForAll(address,bool)": {
        "details": "Enables or disables approval for a third party (\"operator\") to manage all of `msg.sender`'s assets. It also emits the ApprovalForAll event.",
        "params": {
          "_approved": "True if the operators is approved, false to revoke approval.",
          "_operator": "Address to add to the set of authorized operators."
        }
      },
      "supportsInterface(bytes4)": {
        "details": "Function to check which interfaces are suported by this contract.",
        "params": {
          "_interfaceID": "Id of the interface."
        },
        "returns": {
          "_0": "True if _interfaceID is supported, false otherwise."
        }
      },
      "symbol()": {
        "details": "Returns an abbreviated name for NFTokens.",
        "returns": {
          "_symbol": "Representing symbol."
        }
      },
      "tokenURI(uint256)": {
        "details": "A distinct URI (RFC 3986) for a given NFT.",
        "params": {
          "_tokenId": "Id for which we want uri."
        },
        "returns": {
          "_0": "URI of _tokenId."
        }
      },
      "transferFrom(address,address,uint256)": {
        "details": "Throws unless `msg.sender` is the current owner, an authorized operator, or the approved address for this NFT. Throws if `_from` is not the current owner. Throws if `_to` is the zero address. Throws if `_tokenId` is not a valid NFT. This function can be changed to payable.",
        "params": {
          "_from": "The current owner of the NFT.",
          "_to": "The new owner.",
          "_tokenId": "The NFT to transfer."
        }
      },
      "transferOwnership(address)": {
        "details": "Allows the current owner to transfer control of the contract to a newOwner.",
        "params": {
          "_newOwner": "The address to transfer ownership to."
        }
      }
    },
    "version": 1
  },
  "userdoc": {
    "kind": "user",
    "methods": {
      "approve(address,uint256)": {
        "notice": "The zero address indicates there is no approved address. Throws unless `msg.sender` is the current NFT owner, or an authorized operator of the current owner."
      },
      "getApproved(uint256)": {
        "notice": "Throws if `_tokenId` is not a valid NFT."
      },
      "safeTransferFrom(address,address,uint256)": {
        "notice": "This works identically to the other function with an extra data parameter, except this function just sets data to \"\"."
      },
      "safeTransferFrom(address,address,uint256,bytes)": {
        "notice": "Throws unless `msg.sender` is the current owner, an authorized operator, or the approved address for this NFT. Throws if `_from` is not the current owner. Throws if `_to` is the zero address. Throws if `_tokenId` is not a valid NFT. When transfer is complete, this function checks if `_to` is a smart contract (code size > 0). If so, it calls `onERC721Received` on `_to` and throws if the return value is not `bytes4(keccak256(\"onERC721Received(address,uint256,bytes)\"))`."
      },
      "setApprovalForAll(address,bool)": {
        "notice": "This works even if sender doesn't own any tokens at the time."
      },
      "transferFrom(address,address,uint256)": {
        "notice": "The caller is responsible to confirm that `_to` is capable of receiving NFTs or else they may be permanently lost."
      }
    },
    "version": 1
  }
}