{
  "contractName": "Auction",
  "abi": [
    {
      "inputs": [],
      "stateMutability": "nonpayable",
      "type": "constructor"
    },
    {
      "anonymous": false,
      "inputs": [
        {
          "indexed": true,
          "internalType": "address",
          "name": "_owner",
          "type": "address"
        },
        {
          "indexed": true,
          "internalType": "address",
          "name": "_approved",
          "type": "address"
        },
        {
          "indexed": true,
          "internalType": "uint256",
          "name": "_tokenId",
          "type": "uint256"
        }
      ],
      "name": "Approval",
      "type": "event"
    },
    {
      "anonymous": false,
      "inputs": [
        {
          "indexed": true,
          "internalType": "address",
          "name": "_owner",
          "type": "address"
        },
        {
          "indexed": true,
          "internalType": "address",
          "name": "_operator",
          "type": "address"
        },
        {
          "indexed": false,
          "internalType": "bool",
          "name": "_approved",
          "type": "bool"
        }
      ],
      "name": "ApprovalForAll",
      "type": "event"
    },
    {
      "anonymous": false,
      "inputs": [
        {
          "indexed": false,
          "internalType": "address",
          "name": "winner",
          "type": "address"
        },
        {
          "indexed": false,
          "internalType": "uint256",
          "name": "amount",
          "type": "uint256"
        }
      ],
      "name": "AuctionEnded",
      "type": "event"
    },
    {
      "anonymous": false,
      "inputs": [
        {
          "indexed": false,
          "internalType": "address",
          "name": "bidder",
          "type": "address"
        },
        {
          "indexed": false,
          "internalType": "uint256",
          "name": "amount",
          "type": "uint256"
        }
      ],
      "name": "HighestPriceIncreased",
      "type": "event"
    },
    {
      "anonymous": false,
      "inputs": [
        {
          "indexed": true,
          "internalType": "address",
          "name": "previousOwner",
          "type": "address"
        },
        {
          "indexed": true,
          "internalType": "address",
          "name": "newOwner",
          "type": "address"
        }
      ],
      "name": "OwnershipTransferred",
      "type": "event"
    },
    {
      "anonymous": false,
      "inputs": [
        {
          "indexed": true,
          "internalType": "address",
          "name": "_from",
          "type": "address"
        },
        {
          "indexed": true,
          "internalType": "address",
          "name": "_to",
          "type": "address"
        },
        {
          "indexed": true,
          "internalType": "uint256",
          "name": "_tokenId",
          "type": "uint256"
        }
      ],
      "name": "Transfer",
      "type": "event"
    },
    {
      "inputs": [],
      "name": "CANNOT_TRANSFER_TO_ZERO_ADDRESS",
      "outputs": [
        {
          "internalType": "string",
          "name": "",
          "type": "string"
        }
      ],
      "stateMutability": "view",
      "type": "function",
      "constant": true
    },
    {
      "inputs": [],
      "name": "NOT_CURRENT_OWNER",
      "outputs": [
        {
          "internalType": "string",
          "name": "",
          "type": "string"
        }
      ],
      "stateMutability": "view",
      "type": "function",
      "constant": true
    },
    {
      "inputs": [
        {
          "internalType": "address",
          "name": "_approved",
          "type": "address"
        },
        {
          "internalType": "uint256",
          "name": "_tokenId",
          "type": "uint256"
        }
      ],
      "name": "approve",
      "outputs": [],
      "stateMutability": "nonpayable",
      "type": "function"
    },
    {
      "inputs": [
        {
          "internalType": "address",
          "name": "_owner",
          "type": "address"
        }
      ],
      "name": "balanceOf",
      "outputs": [
        {
          "internalType": "uint256",
          "name": "",
          "type": "uint256"
        }
      ],
      "stateMutability": "view",
      "type": "function",
      "constant": true
    },
    {
      "inputs": [
        {
          "internalType": "uint256",
          "name": "_tokenId",
          "type": "uint256"
        }
      ],
      "name": "getApproved",
      "outputs": [
        {
          "internalType": "address",
          "name": "",
          "type": "address"
        }
      ],
      "stateMutability": "view",
      "type": "function",
      "constant": true
    },
    {
      "inputs": [
        {
          "internalType": "address",
          "name": "_owner",
          "type": "address"
        },
        {
          "internalType": "address",
          "name": "_operator",
          "type": "address"
        }
      ],
      "name": "isApprovedForAll",
      "outputs": [
        {
          "internalType": "bool",
          "name": "",
          "type": "bool"
        }
      ],
      "stateMutability": "view",
      "type": "function",
      "constant": true
    },
    {
      "inputs": [],
      "name": "name",
      "outputs": [
        {
          "internalType": "string",
          "name": "_name",
          "type": "string"
        }
      ],
      "stateMutability": "view",
      "type": "function",
      "constant": true
    },
    {
      "inputs": [],
      "name": "owner",
      "outputs": [
        {
          "internalType": "address",
          "name": "",
          "type": "address"
        }
      ],
      "stateMutability": "view",
      "type": "function",
      "constant": true
    },
    {
      "inputs": [
        {
          "internalType": "uint256",
          "name": "_tokenId",
          "type": "uint256"
        }
      ],
      "name": "ownerOf",
      "outputs": [
        {
          "internalType": "address",
          "name": "_owner",
          "type": "address"
        }
      ],
      "stateMutability": "view",
      "type": "function",
      "constant": true
    },
    {
      "inputs": [
        {
          "internalType": "address",
          "name": "_from",
          "type": "address"
        },
        {
          "internalType": "address",
          "name": "_to",
          "type": "address"
        },
        {
          "internalType": "uint256",
          "name": "_tokenId",
          "type": "uint256"
        }
      ],
      "name": "safeTransferFrom",
      "outputs": [],
      "stateMutability": "nonpayable",
      "type": "function"
    },
    {
      "inputs": [
        {
          "internalType": "address",
          "name": "_from",
          "type": "address"
        },
        {
          "internalType": "address",
          "name": "_to",
          "type": "address"
        },
        {
          "internalType": "uint256",
          "name": "_tokenId",
          "type": "uint256"
        },
        {
          "internalType": "bytes",
          "name": "_data",
          "type": "bytes"
        }
      ],
      "name": "safeTransferFrom",
      "outputs": [],
      "stateMutability": "nonpayable",
      "type": "function"
    },
    {
      "inputs": [
        {
          "internalType": "address",
          "name": "_operator",
          "type": "address"
        },
        {
          "internalType": "bool",
          "name": "_approved",
          "type": "bool"
        }
      ],
      "name": "setApprovalForAll",
      "outputs": [],
      "stateMutability": "nonpayable",
      "type": "function"
    },
    {
      "inputs": [
        {
          "internalType": "bytes4",
          "name": "_interfaceID",
          "type": "bytes4"
        }
      ],
      "name": "supportsInterface",
      "outputs": [
        {
          "internalType": "bool",
          "name": "",
          "type": "bool"
        }
      ],
      "stateMutability": "view",
      "type": "function",
      "constant": true
    },
    {
      "inputs": [],
      "name": "symbol",
      "outputs": [
        {
          "internalType": "string",
          "name": "_symbol",
          "type": "string"
        }
      ],
      "stateMutability": "view",
      "type": "function",
      "constant": true
    },
    {
      "inputs": [
        {
          "internalType": "uint256",
          "name": "_tokenId",
          "type": "uint256"
        }
      ],
      "name": "tokenURI",
      "outputs": [
        {
          "internalType": "string",
          "name": "",
          "type": "string"
        }
      ],
      "stateMutability": "view",
      "type": "function",
      "constant": true
    },
    {
      "inputs": [
        {
          "internalType": "address",
          "name": "_from",
          "type": "address"
        },
        {
          "internalType": "address",
          "name": "_to",
          "type": "address"
        },
        {
          "internalType": "uint256",
          "name": "_tokenId",
          "type": "uint256"
        }
      ],
      "name": "transferFrom",
      "outputs": [],
      "stateMutability": "nonpayable",
      "type": "function"
    },
    {
      "inputs": [
        {
          "internalType": "address",
          "name": "_newOwner",
          "type": "address"
        }
      ],
      "name": "transferOwnership",
      "outputs": [],
      "stateMutability": "nonpayable",
      "type": "function"
    },
    {
      "inputs": [
        {
          "internalType": "address",
          "name": "_to",
          "type": "address"
        },
        {
          "internalType": "string",
          "name": "_uri",
          "type": "string"
        },
        {
          "internalType": "uint256",
          "name": "nowtime",
          "type": "uint256"
        }
      ],
      "name": "mint",
      "outputs": [],
      "stateMutability": "nonpayable",
      "type": "function"
    },
    {
      "inputs": [
        {
          "internalType": "address",
          "name": "_address",
          "type": "address"
        }
      ],
      "name": "showMyNFT",
      "outputs": [
        {
          "components": [
            {
              "internalType": "uint256",
              "name": "tokenid",
              "type": "uint256"
            },
            {
              "internalType": "string",
              "name": "uri",
              "type": "string"
            },
            {
              "internalType": "bool",
              "name": "on_auction",
              "type": "bool"
            }
          ],
          "internalType": "struct Auction.MyNftoken[]",
          "name": "",
          "type": "tuple[]"
        }
      ],
      "stateMutability": "view",
      "type": "function",
      "constant": true
    },
    {
      "inputs": [
        {
          "internalType": "address",
          "name": "_address",
          "type": "address"
        },
        {
          "internalType": "uint256",
          "name": "nowtime",
          "type": "uint256"
        }
      ],
      "name": "showClaim",
      "outputs": [
        {
          "internalType": "uint256[]",
          "name": "",
          "type": "uint256[]"
        }
      ],
      "stateMutability": "view",
      "type": "function",
      "constant": true
    },
    {
      "inputs": [
        {
          "internalType": "uint256",
          "name": "nowtime",
          "type": "uint256"
        }
      ],
      "name": "showAuction",
      "outputs": [
        {
          "components": [
            {
              "internalType": "uint256",
              "name": "tokenid",
              "type": "uint256"
            },
            {
              "internalType": "string",
              "name": "uri",
              "type": "string"
            },
            {
              "internalType": "uint256",
              "name": "begin_time",
              "type": "uint256"
            },
            {
              "internalType": "uint256",
              "name": "end_time",
              "type": "uint256"
            },
            {
              "internalType": "uint256",
              "name": "current_price",
              "type": "uint256"
            },
            {
              "internalType": "address",
              "name": "highest_bidder",
              "type": "address"
            }
          ],
          "internalType": "struct Auction.AuctionInfo[]",
          "name": "",
          "type": "tuple[]"
        }
      ],
      "stateMutability": "view",
      "type": "function",
      "constant": true
    },
    {
      "inputs": [
        {
          "internalType": "uint256",
          "name": "tokenid",
          "type": "uint256"
        }
      ],
      "name": "showTransmission",
      "outputs": [
        {
          "internalType": "address[]",
          "name": "",
          "type": "address[]"
        }
      ],
      "stateMutability": "view",
      "type": "function",
      "constant": true
    },
    {
      "inputs": [
        {
          "internalType": "uint256",
          "name": "begin_time",
          "type": "uint256"
        },
        {
          "internalType": "uint256",
          "name": "end_time",
          "type": "uint256"
        },
        {
          "internalType": "uint256",
          "name": "token",
          "type": "uint256"
        },
        {
          "internalType": "uint256",
          "name": "start_price",
          "type": "uint256"
        },
        {
          "internalType": "address payable",
          "name": "beginner",
          "type": "address"
        },
        {
          "internalType": "uint256",
          "name": "nowtime",
          "type": "uint256"
        }
      ],
      "name": "beginAuction",
      "outputs": [],
      "stateMutability": "nonpayable",
      "type": "function"
    },
    {
      "inputs": [
        {
          "internalType": "address payable",
          "name": "bidder",
          "type": "address"
        },
        {
          "internalType": "uint256",
          "name": "token",
          "type": "uint256"
        },
        {
          "internalType": "uint256",
          "name": "nowtime",
          "type": "uint256"
        }
      ],
      "name": "bid",
      "outputs": [],
      "stateMutability": "payable",
      "type": "function",
      "payable": true
    },
    {
      "inputs": [
        {
          "internalType": "uint256",
          "name": "tokenid",
          "type": "uint256"
        },
        {
          "internalType": "uint256",
          "name": "nowtime",
          "type": "uint256"
        }
      ],
      "name": "claim",
      "outputs": [],
      "stateMutability": "payable",
      "type": "function",
      "payable": true
    }
  ],
  "bytecode": "0x60806040523480156200001157600080fd5b5060016000806301ffc9a760e01b7bffffffffffffffffffffffffffffffffffffffffffffffffffffffff1916815260200190815260200160002060006101000a81548160ff02191690831515021790555060016000806380ac58cd60e01b7bffffffffffffffffffffffffffffffffffffffffffffffffffffffff1916815260200190815260200160002060006101000a81548160ff0219169083151502179055506001600080635b5e139f60e01b7bffffffffffffffffffffffffffffffffffffffffffffffffffffffff1916815260200190815260200160002060006101000a81548160ff02191690831515021790555033600860006101000a81548173ffffffffffffffffffffffffffffffffffffffff021916908373ffffffffffffffffffffffffffffffffffffffff1602179055506040518060400160405280600a81526020017f33313930313034363035000000000000000000000000000000000000000000008152506005908051906020019062000193929190620001f0565b506040518060400160405280600481526020017f7a796e6d0000000000000000000000000000000000000000000000000000000081525060069080519060200190620001e1929190620001f0565b50600060098190555062000305565b828054620001fe90620002a0565b90600052602060002090601f0160209004810192826200022257600085556200026e565b82601f106200023d57805160ff19168380011785556200026e565b828001600101855582156200026e579182015b828111156200026d57825182559160200191906001019062000250565b5b5090506200027d919062000281565b5090565b5b808211156200029c57600081600090555060010162000282565b5090565b60006002820490506001821680620002b957607f821691505b60208210811415620002d057620002cf620002d6565b5b50919050565b7f4e487b7100000000000000000000000000000000000000000000000000000000600052602260045260246000fd5b614dc580620003156000396000f3fe6080604052600436106101665760003560e01c8063860d248a116100d1578063c34902631161008a578063e985e9c511610064578063e985e9c514610556578063f2fde38b14610593578063f3fe3bc3146105bc578063faf63827146105e757610166565b8063c3490263146104d4578063c87b56dd146104f0578063d8e632f21461052d57610166565b8063860d248a146103d85780638da5cb5b1461040357806395d89b411461042e578063a22cb46514610459578063b88d4fde14610482578063ba7aef43146104ab57610166565b806323b872dd1161012357806323b872dd1461029257806326e910d8146102bb5780632a40ad48146102f857806342842e0e146103355780636352211e1461035e57806370a082311461039b57610166565b806301ffc9a71461016b57806306fdde03146101a8578063081812fc146101d3578063095ea7b3146102105780630f41ba4b146102395780631e4ef18c14610255575b600080fd5b34801561017757600080fd5b50610192600480360381019061018d9190613f72565b610624565b60405161019f91906146be565b60405180910390f35b3480156101b457600080fd5b506101bd61068b565b6040516101ca91906146d9565b60405180910390f35b3480156101df57600080fd5b506101fa60048036038101906101f59190613fcc565b61071d565b60405161020791906145a6565b60405180910390f35b34801561021c57600080fd5b5061023760048036038101906102329190613f32565b610838565b005b610253600480360381019061024e9190613d10565b610c1b565b005b34801561026157600080fd5b5061027c60048036038101906102779190613fcc565b610ef0565b6040516102899190614658565b60405180910390f35b34801561029e57600080fd5b506102b960048036038101906102b49190613da3565b6112af565b005b3480156102c757600080fd5b506102e260048036038101906102dd9190613f32565b611701565b6040516102ef919061469c565b60405180910390f35b34801561030457600080fd5b5061031f600480360381019061031a9190613ce3565b6118d6565b60405161032c919061467a565b60405180910390f35b34801561034157600080fd5b5061035c60048036038101906103579190613da3565b611b77565b005b34801561036a57600080fd5b5061038560048036038101906103809190613fcc565b611b97565b60405161039291906145a6565b60405180910390f35b3480156103a757600080fd5b506103c260048036038101906103bd9190613ce3565b611c7d565b6040516103cf91906147db565b60405180910390f35b3480156103e457600080fd5b506103ed611d37565b6040516103fa91906146d9565b60405180910390f35b34801561040f57600080fd5b50610418611d70565b60405161042591906145a6565b60405180910390f35b34801561043a57600080fd5b50610443611d96565b60405161045091906146d9565b60405180910390f35b34801561046557600080fd5b50610480600480360381019061047b9190613e7e565b611e28565b005b34801561048e57600080fd5b506104a960048036038101906104a49190613df6565b611f25565b005b3480156104b757600080fd5b506104d260048036038101906104cd9190613ebe565b611f7c565b005b6104ee60048036038101906104e99190613ff9565b612058565b005b3480156104fc57600080fd5b5061051760048036038101906105129190613fcc565b612577565b60405161052491906146d9565b60405180910390f35b34801561053957600080fd5b50610554600480360381019061054f9190614039565b6126fa565b005b34801561056257600080fd5b5061057d60048036038101906105789190613d63565b6128b5565b60405161058a91906146be565b60405180910390f35b34801561059f57600080fd5b506105ba60048036038101906105b59190613ce3565b612949565b005b3480156105c857600080fd5b506105d1612b7b565b6040516105de91906146d9565b60405180910390f35b3480156105f357600080fd5b5061060e60048036038101906106099190613fcc565b612bb4565b60405161061b9190614636565b60405180910390f35b6000806000837bffffffffffffffffffffffffffffffffffffffffffffffffffffffff19167bffffffffffffffffffffffffffffffffffffffffffffffffffffffff1916815260200190815260200160002060009054906101000a900460ff169050919050565b60606005805461069a90614a9c565b80601f01602080910402602001604051908101604052809291908181526020018280546106c690614a9c565b80156107135780601f106106e857610100808354040283529160200191610713565b820191906000526020600020905b8154815290600101906020018083116106f657829003601f168201915b5050505050905090565b600081600073ffffffffffffffffffffffffffffffffffffffff166001600083815260200190815260200160002060009054906101000a900473ffffffffffffffffffffffffffffffffffffffff1673ffffffffffffffffffffffffffffffffffffffff1614156040518060400160405280600681526020017f3030333030320000000000000000000000000000000000000000000000000000815250906107fb576040517f08c379a00000000000000000000000000000000000000000000000000000000081526004016107f291906146d9565b60405180910390fd5b506002600084815260200190815260200160002060009054906101000a900473ffffffffffffffffffffffffffffffffffffffff16915050919050565b8060006001600083815260200190815260200160002060009054906101000a900473ffffffffffffffffffffffffffffffffffffffff1690503373ffffffffffffffffffffffffffffffffffffffff168173ffffffffffffffffffffffffffffffffffffffff1614806109315750600460008273ffffffffffffffffffffffffffffffffffffffff1673ffffffffffffffffffffffffffffffffffffffff16815260200190815260200160002060003373ffffffffffffffffffffffffffffffffffffffff1673ffffffffffffffffffffffffffffffffffffffff16815260200190815260200160002060009054906101000a900460ff165b6040518060400160405280600681526020017f3030333030330000000000000000000000000000000000000000000000000000815250906109a8576040517f08c379a000000000000000000000000000000000000000000000000000000000815260040161099f91906146d9565b60405180910390fd5b5082600073ffffffffffffffffffffffffffffffffffffffff166001600083815260200190815260200160002060009054906101000a900473ffffffffffffffffffffffffffffffffffffffff1673ffffffffffffffffffffffffffffffffffffffff1614156040518060400160405280600681526020017f303033303032000000000000000000000000000000000000000000000000000081525090610a85576040517f08c379a0000000000000000000000000000000000000000000000000000000008152600401610a7c91906146d9565b60405180910390fd5b5060006001600086815260200190815260200160002060009054906101000a900473ffffffffffffffffffffffffffffffffffffffff1690508073ffffffffffffffffffffffffffffffffffffffff168673ffffffffffffffffffffffffffffffffffffffff1614156040518060400160405280600681526020017f303033303038000000000000000000000000000000000000000000000000000081525090610b65576040517f08c379a0000000000000000000000000000000000000000000000000000000008152600401610b5c91906146d9565b60405180910390fd5b50856002600087815260200190815260200160002060006101000a81548173ffffffffffffffffffffffffffffffffffffffff021916908373ffffffffffffffffffffffffffffffffffffffff160217905550848673ffffffffffffffffffffffffffffffffffffffff168273ffffffffffffffffffffffffffffffffffffffff167f8c5be1e5ebec7d5bd14f71427d1e84f3dd0314c0f7b2291e5b200ac8c7c3b92560405160405180910390a4505050505050565b6000349050600b600084815260200190815260200160002054821015610c76576040517f08c379a0000000000000000000000000000000000000000000000000000000008152600401610c6d906146fb565b60405180910390fd5b600c6000848152602001908152602001600020548210610ccb576040517f08c379a0000000000000000000000000000000000000000000000000000000008152600401610cc29061471b565b60405180910390fd5b600d6000848152602001908152602001600020548111610d20576040517f08c379a0000000000000000000000000000000000000000000000000000000008152600401610d179061473b565b60405180910390fd5b600f600084815260200190815260200160002060009054906101000a900473ffffffffffffffffffffffffffffffffffffffff1673ffffffffffffffffffffffffffffffffffffffff16600e600085815260200190815260200160002060009054906101000a900473ffffffffffffffffffffffffffffffffffffffff1673ffffffffffffffffffffffffffffffffffffffff1614610e4757600e600084815260200190815260200160002060009054906101000a900473ffffffffffffffffffffffffffffffffffffffff1673ffffffffffffffffffffffffffffffffffffffff166108fc600d6000868152602001908152602001600020549081150290604051600060405180830381858888f19350505050158015610e45573d6000803e3d6000fd5b505b80600d60008581526020019081526020016000208190555083600e600085815260200190815260200160002060006101000a81548173ffffffffffffffffffffffffffffffffffffffff021916908373ffffffffffffffffffffffffffffffffffffffff1602179055507f71f2b5204d232e8ce0cd94acd5274897c8391865d731ad8cfb7306a5a617dc938482604051610ee29291906145c1565b60405180910390a150505050565b6060600060095467ffffffffffffffff811115610f1057610f0f614ba4565b5b604051908082528060200260200182016040528015610f4957816020015b610f36613aa7565b815260200190600190039081610f2e5790505b5090506000805b600954811015610f92576000838281518110610f6f57610f6e614b75565b5b602002602001015160000181815250508080610f8a90614ace565b915050610f50565b5060005b6009548110156112a45760011515600a6000600184610fb59190614923565b815260200190815260200160002060009054906101000a900460ff161515148015610ffe5750600b6000600183610fec9190614923565b81526020019081526020016000205485115b80156110285750600c60006001836110169190614923565b81526020019081526020016000205485105b156112915760018161103a9190614923565b83838151811061104d5761104c614b75565b5b602002602001015160000181815250506007600060018361106e9190614923565b8152602001908152602001600020805461108790614a9c565b80601f01602080910402602001604051908101604052809291908181526020018280546110b390614a9c565b80156111005780601f106110d557610100808354040283529160200191611100565b820191906000526020600020905b8154815290600101906020018083116110e357829003601f168201915b505050505083838151811061111857611117614b75565b5b602002602001015160200181905250600b60006001836111389190614923565b81526020019081526020016000205483838151811061115a57611159614b75565b5b60200260200101516040018181525050600c600060018361117b9190614923565b81526020019081526020016000205483838151811061119d5761119c614b75565b5b60200260200101516060018181525050600d60006001836111be9190614923565b8152602001908152602001600020548383815181106111e0576111df614b75565b5b60200260200101516080018181525050600e60006001836112019190614923565b815260200190815260200160002060009054906101000a900473ffffffffffffffffffffffffffffffffffffffff1683838151811061124357611242614b75565b5b602002602001015160a0019073ffffffffffffffffffffffffffffffffffffffff16908173ffffffffffffffffffffffffffffffffffffffff168152505060018261128e9190614923565b91505b808061129c90614ace565b915050610f96565b508192505050919050565b8060006001600083815260200190815260200160002060009054906101000a900473ffffffffffffffffffffffffffffffffffffffff1690503373ffffffffffffffffffffffffffffffffffffffff168173ffffffffffffffffffffffffffffffffffffffff16148061138057503373ffffffffffffffffffffffffffffffffffffffff166002600084815260200190815260200160002060009054906101000a900473ffffffffffffffffffffffffffffffffffffffff1673ffffffffffffffffffffffffffffffffffffffff16145b806114115750600460008273ffffffffffffffffffffffffffffffffffffffff1673ffffffffffffffffffffffffffffffffffffffff16815260200190815260200160002060003373ffffffffffffffffffffffffffffffffffffffff1673ffffffffffffffffffffffffffffffffffffffff16815260200190815260200160002060009054906101000a900460ff165b6040518060400160405280600681526020017f303033303034000000000000000000000000000000000000000000000000000081525090611488576040517f08c379a000000000000000000000000000000000000000000000000000000000815260040161147f91906146d9565b60405180910390fd5b5082600073ffffffffffffffffffffffffffffffffffffffff166001600083815260200190815260200160002060009054906101000a900473ffffffffffffffffffffffffffffffffffffffff1673ffffffffffffffffffffffffffffffffffffffff1614156040518060400160405280600681526020017f303033303032000000000000000000000000000000000000000000000000000081525090611565576040517f08c379a000000000000000000000000000000000000000000000000000000000815260040161155c91906146d9565b60405180910390fd5b5060006001600086815260200190815260200160002060009054906101000a900473ffffffffffffffffffffffffffffffffffffffff1690508673ffffffffffffffffffffffffffffffffffffffff168173ffffffffffffffffffffffffffffffffffffffff16146040518060400160405280600681526020017f303033303037000000000000000000000000000000000000000000000000000081525090611644576040517f08c379a000000000000000000000000000000000000000000000000000000000815260040161163b91906146d9565b60405180910390fd5b50600073ffffffffffffffffffffffffffffffffffffffff168673ffffffffffffffffffffffffffffffffffffffff1614156040518060400160405280600681526020017f3030333030310000000000000000000000000000000000000000000000000000815250906116ed576040517f08c379a00000000000000000000000000000000000000000000000000000000081526004016116e491906146d9565b60405180910390fd5b506116f88686612d6c565b50505050505050565b6060600060095467ffffffffffffffff81111561172157611720614ba4565b5b60405190808252806020026020018201604052801561174f5781602001602082028036833780820191505090505b50905060005b60095481101561179357600082828151811061177457611773614b75565b5b602002602001018181525050808061178b90614ace565b915050611755565b506000805b6009548110156118ca5760011515600a60006001846117b79190614923565b815260200190815260200160002060009054906101000a900460ff16151514801561187657508573ffffffffffffffffffffffffffffffffffffffff16600e60006001846118059190614923565b815260200190815260200160002060009054906101000a900473ffffffffffffffffffffffffffffffffffffffff1673ffffffffffffffffffffffffffffffffffffffff161480156118755750600c60006001836118639190614923565b81526020019081526020016000205485115b5b156118b7576001816118889190614923565b83838151811061189b5761189a614b75565b5b6020026020010181815250506001826118b49190614923565b91505b80806118c290614ace565b915050611798565b50819250505092915050565b6060600060095467ffffffffffffffff8111156118f6576118f5614ba4565b5b60405190808252806020026020018201604052801561192f57816020015b61191c613af3565b8152602001906001900390816119145790505b50905060005b60095481101561197757600082828151811061195457611953614b75565b5b60200260200101516000018181525050808061196f90614ace565b915050611935565b506000805b600954811015611b6c578473ffffffffffffffffffffffffffffffffffffffff16600160006001846119ae9190614923565b815260200190815260200160002060009054906101000a900473ffffffffffffffffffffffffffffffffffffffff1673ffffffffffffffffffffffffffffffffffffffff161415611b5957600181611a069190614923565b838381518110611a1957611a18614b75565b5b6020026020010151600001818152505060076000600183611a3a9190614923565b81526020019081526020016000208054611a5390614a9c565b80601f0160208091040260200160405190810160405280929190818152602001828054611a7f90614a9c565b8015611acc5780601f10611aa157610100808354040283529160200191611acc565b820191906000526020600020905b815481529060010190602001808311611aaf57829003601f168201915b5050505050838381518110611ae457611ae3614b75565b5b602002602001015160200181905250600a6000600183611b049190614923565b815260200190815260200160002060009054906101000a900460ff16838381518110611b3357611b32614b75565b5b60200260200101516040019015159081151581525050600182611b569190614923565b91505b8080611b6490614ace565b91505061197c565b508192505050919050565b611b9283838360405180602001604052806000815250612e21565b505050565b60006001600083815260200190815260200160002060009054906101000a900473ffffffffffffffffffffffffffffffffffffffff169050600073ffffffffffffffffffffffffffffffffffffffff168173ffffffffffffffffffffffffffffffffffffffff1614156040518060400160405280600681526020017f303033303032000000000000000000000000000000000000000000000000000081525090611c77576040517f08c379a0000000000000000000000000000000000000000000000000000000008152600401611c6e91906146d9565b60405180910390fd5b50919050565b60008073ffffffffffffffffffffffffffffffffffffffff168273ffffffffffffffffffffffffffffffffffffffff1614156040518060400160405280600681526020017f303033303031000000000000000000000000000000000000000000000000000081525090611d26576040517f08c379a0000000000000000000000000000000000000000000000000000000008152600401611d1d91906146d9565b60405180910390fd5b50611d30826133ef565b9050919050565b6040518060400160405280600681526020017f303138303032000000000000000000000000000000000000000000000000000081525081565b600860009054906101000a900473ffffffffffffffffffffffffffffffffffffffff1681565b606060068054611da590614a9c565b80601f0160208091040260200160405190810160405280929190818152602001828054611dd190614a9c565b8015611e1e5780601f10611df357610100808354040283529160200191611e1e565b820191906000526020600020905b815481529060010190602001808311611e0157829003601f168201915b5050505050905090565b80600460003373ffffffffffffffffffffffffffffffffffffffff1673ffffffffffffffffffffffffffffffffffffffff16815260200190815260200160002060008473ffffffffffffffffffffffffffffffffffffffff1673ffffffffffffffffffffffffffffffffffffffff16815260200190815260200160002060006101000a81548160ff0219169083151502179055508173ffffffffffffffffffffffffffffffffffffffff163373ffffffffffffffffffffffffffffffffffffffff167f17307eab39ab6107e8899845ad3d59bd9653f200f220920489ca2b5937696c3183604051611f1991906146be565b60405180910390a35050565b611f7585858585858080601f016020809104026020016040519081016040528093929190818152602001838380828437600081840152601f19601f82011690508083019250505050505050612e21565b5050505050565b60096000815480929190611f8f90614ace565b9190505550611fa084600954613438565b611ff060095484848080601f016020809104026020016040519081016040528093929190818152602001838380828437600081840152601f19601f82011690508083019250505050505050613626565b6000600a6000600954815260200190815260200160002060006101000a81548160ff02191690831515021790555080600c600060095481526020019081526020016000208190555080600b600060095481526020019081526020016000208190555050505050565b600c6000838152602001908152602001600020548110156120ae576040517f08c379a00000000000000000000000000000000000000000000000000000000081526004016120a59061475b565b60405180910390fd5b60011515600a600084815260200190815260200160002060009054906101000a900460ff16151514612115576040517f08c379a000000000000000000000000000000000000000000000000000000000815260040161210c9061477b565b60405180910390fd5b600e600083815260200190815260200160002060009054906101000a900473ffffffffffffffffffffffffffffffffffffffff1673ffffffffffffffffffffffffffffffffffffffff163373ffffffffffffffffffffffffffffffffffffffff16146121b6576040517f08c379a00000000000000000000000000000000000000000000000000000000081526004016121ad9061479b565b60405180910390fd5b6000600a600084815260200190815260200160002060006101000a81548160ff0219169083151502179055507fdaec4582d5d9595688c8c98545fdd1c696d41c6aeaeb636737e84ed2f5c00eda600e600084815260200190815260200160002060009054906101000a900473ffffffffffffffffffffffffffffffffffffffff16600d6000858152602001908152602001600020546040516122599291906145c1565b60405180910390a1600f600083815260200190815260200160002060009054906101000a900473ffffffffffffffffffffffffffffffffffffffff1673ffffffffffffffffffffffffffffffffffffffff166108fc600d6000858152602001908152602001600020549081150290604051600060405180830381858888f193505050501580156122ed573d6000803e3d6000fd5b5060106000838152602001908152602001600020600f600084815260200190815260200160002060009054906101000a900473ffffffffffffffffffffffffffffffffffffffff169080600181540180825580915050600190039060005260206000200160009091909190916101000a81548173ffffffffffffffffffffffffffffffffffffffff021916908373ffffffffffffffffffffffffffffffffffffffff160217905550600f600083815260200190815260200160002060009054906101000a900473ffffffffffffffffffffffffffffffffffffffff1673ffffffffffffffffffffffffffffffffffffffff16600e600084815260200190815260200160002060009054906101000a900473ffffffffffffffffffffffffffffffffffffffff1673ffffffffffffffffffffffffffffffffffffffff16146125735760006001600084815260200190815260200160002060009054906101000a900473ffffffffffffffffffffffffffffffffffffffff1690506002600084815260200190815260200160002060006101000a81549073ffffffffffffffffffffffffffffffffffffffff02191690556124a68184613730565b6124e3600e600085815260200190815260200160002060009054906101000a900473ffffffffffffffffffffffffffffffffffffffff168461389b565b82600e600085815260200190815260200160002060009054906101000a900473ffffffffffffffffffffffffffffffffffffffff1673ffffffffffffffffffffffffffffffffffffffff168273ffffffffffffffffffffffffffffffffffffffff167fddf252ad1be2c89b69c2b068fc378daa952ba7f163c4a11628f55a4df523b3ef60405160405180910390a4505b5050565b606081600073ffffffffffffffffffffffffffffffffffffffff166001600083815260200190815260200160002060009054906101000a900473ffffffffffffffffffffffffffffffffffffffff1673ffffffffffffffffffffffffffffffffffffffff1614156040518060400160405280600681526020017f303033303032000000000000000000000000000000000000000000000000000081525090612655576040517f08c379a000000000000000000000000000000000000000000000000000000000815260040161264c91906146d9565b60405180910390fd5b5060076000848152602001908152602001600020805461267490614a9c565b80601f01602080910402602001604051908101604052809291908181526020018280546126a090614a9c565b80156126ed5780601f106126c2576101008083540402835291602001916126ed565b820191906000526020600020905b8154815290600101906020018083116126d057829003601f168201915b5050505050915050919050565b80861161270657600080fd5b84861061271257600080fd5b6000841161271f57600080fd5b60095484111561272e57600080fd5b60001515600a600086815260200190815260200160002060009054906101000a900460ff16151514612795576040517f08c379a000000000000000000000000000000000000000000000000000000000815260040161278c906147bb565b60405180910390fd5b6001600a600086815260200190815260200160002060006101000a81548160ff02191690831515021790555085600b60008681526020019081526020016000208190555084600c60008681526020019081526020016000208190555082600d60008681526020019081526020016000208190555081600f600086815260200190815260200160002060006101000a81548173ffffffffffffffffffffffffffffffffffffffff021916908373ffffffffffffffffffffffffffffffffffffffff16021790555081600e600086815260200190815260200160002060006101000a81548173ffffffffffffffffffffffffffffffffffffffff021916908373ffffffffffffffffffffffffffffffffffffffff160217905550505050505050565b6000600460008473ffffffffffffffffffffffffffffffffffffffff1673ffffffffffffffffffffffffffffffffffffffff16815260200190815260200160002060008373ffffffffffffffffffffffffffffffffffffffff1673ffffffffffffffffffffffffffffffffffffffff16815260200190815260200160002060009054906101000a900460ff16905092915050565b600860009054906101000a900473ffffffffffffffffffffffffffffffffffffffff1673ffffffffffffffffffffffffffffffffffffffff163373ffffffffffffffffffffffffffffffffffffffff16146040518060400160405280600681526020017f303138303031000000000000000000000000000000000000000000000000000081525090612a11576040517f08c379a0000000000000000000000000000000000000000000000000000000008152600401612a0891906146d9565b60405180910390fd5b50600073ffffffffffffffffffffffffffffffffffffffff168173ffffffffffffffffffffffffffffffffffffffff1614156040518060400160405280600681526020017f303138303032000000000000000000000000000000000000000000000000000081525090612aba576040517f08c379a0000000000000000000000000000000000000000000000000000000008152600401612ab191906146d9565b60405180910390fd5b508073ffffffffffffffffffffffffffffffffffffffff16600860009054906101000a900473ffffffffffffffffffffffffffffffffffffffff1673ffffffffffffffffffffffffffffffffffffffff167f8be0079c531659141344cd1fd0a4f28419497f9722a3daafe3b4186f6b6457e060405160405180910390a380600860006101000a81548173ffffffffffffffffffffffffffffffffffffffff021916908373ffffffffffffffffffffffffffffffffffffffff16021790555050565b6040518060400160405280600681526020017f303138303031000000000000000000000000000000000000000000000000000081525081565b606060006010600084815260200190815260200160002080549050905060008190506000821415612be457600190505b60008167ffffffffffffffff811115612c0057612bff614ba4565b5b604051908082528060200260200182016040528015612c2e5781602001602082028036833780820191505090505b50905060008314612d105760005b6010600087815260200190815260200160002080549050811015612d0a57601060008781526020019081526020016000208181548110612c7f57612c7e614b75565b5b9060005260206000200160009054906101000a900473ffffffffffffffffffffffffffffffffffffffff16828281518110612cbd57612cbc614b75565b5b602002602001019073ffffffffffffffffffffffffffffffffffffffff16908173ffffffffffffffffffffffffffffffffffffffff16815250508080612d0290614ace565b915050612c3c565b50612d61565b600081600081518110612d2657612d25614b75565b5b602002602001019073ffffffffffffffffffffffffffffffffffffffff16908173ffffffffffffffffffffffffffffffffffffffff16815250505b809350505050919050565b60006001600083815260200190815260200160002060009054906101000a900473ffffffffffffffffffffffffffffffffffffffff169050612dad82613a23565b612db78183613730565b612dc1838361389b565b818373ffffffffffffffffffffffffffffffffffffffff168273ffffffffffffffffffffffffffffffffffffffff167fddf252ad1be2c89b69c2b068fc378daa952ba7f163c4a11628f55a4df523b3ef60405160405180910390a4505050565b8160006001600083815260200190815260200160002060009054906101000a900473ffffffffffffffffffffffffffffffffffffffff1690503373ffffffffffffffffffffffffffffffffffffffff168173ffffffffffffffffffffffffffffffffffffffff161480612ef257503373ffffffffffffffffffffffffffffffffffffffff166002600084815260200190815260200160002060009054906101000a900473ffffffffffffffffffffffffffffffffffffffff1673ffffffffffffffffffffffffffffffffffffffff16145b80612f835750600460008273ffffffffffffffffffffffffffffffffffffffff1673ffffffffffffffffffffffffffffffffffffffff16815260200190815260200160002060003373ffffffffffffffffffffffffffffffffffffffff1673ffffffffffffffffffffffffffffffffffffffff16815260200190815260200160002060009054906101000a900460ff165b6040518060400160405280600681526020017f303033303034000000000000000000000000000000000000000000000000000081525090612ffa576040517f08c379a0000000000000000000000000000000000000000000000000000000008152600401612ff191906146d9565b60405180910390fd5b5083600073ffffffffffffffffffffffffffffffffffffffff166001600083815260200190815260200160002060009054906101000a900473ffffffffffffffffffffffffffffffffffffffff1673ffffffffffffffffffffffffffffffffffffffff1614156040518060400160405280600681526020017f3030333030320000000000000000000000000000000000000000000000000000815250906130d7576040517f08c379a00000000000000000000000000000000000000000000000000000000081526004016130ce91906146d9565b60405180910390fd5b5060006001600087815260200190815260200160002060009054906101000a900473ffffffffffffffffffffffffffffffffffffffff1690508773ffffffffffffffffffffffffffffffffffffffff168173ffffffffffffffffffffffffffffffffffffffff16146040518060400160405280600681526020017f3030333030370000000000000000000000000000000000000000000000000000815250906131b6576040517f08c379a00000000000000000000000000000000000000000000000000000000081526004016131ad91906146d9565b60405180910390fd5b50600073ffffffffffffffffffffffffffffffffffffffff168773ffffffffffffffffffffffffffffffffffffffff1614156040518060400160405280600681526020017f30303330303100000000000000000000000000000000000000000000000000008152509061325f576040517f08c379a000000000000000000000000000000000000000000000000000000000815260040161325691906146d9565b60405180910390fd5b5061326a8787612d6c565b6132898773ffffffffffffffffffffffffffffffffffffffff16613a5c565b156133e55760008773ffffffffffffffffffffffffffffffffffffffff1663150b7a02338b8a8a6040518563ffffffff1660e01b81526004016132cf94939291906145ea565b602060405180830381600087803b1580156132e957600080fd5b505af11580156132fd573d6000803e3d6000fd5b505050506040513d601f19601f820116820180604052508101906133219190613f9f565b905063150b7a0260e01b7bffffffffffffffffffffffffffffffffffffffffffffffffffffffff1916817bffffffffffffffffffffffffffffffffffffffffffffffffffffffff1916146040518060400160405280600681526020017f3030333030350000000000000000000000000000000000000000000000000000815250906133e2576040517f08c379a00000000000000000000000000000000000000000000000000000000081526004016133d991906146d9565b60405180910390fd5b50505b5050505050505050565b6000600360008373ffffffffffffffffffffffffffffffffffffffff1673ffffffffffffffffffffffffffffffffffffffff168152602001908152602001600020549050919050565b600073ffffffffffffffffffffffffffffffffffffffff168273ffffffffffffffffffffffffffffffffffffffff1614156040518060400160405280600681526020017f3030333030310000000000000000000000000000000000000000000000000000815250906134e0576040517f08c379a00000000000000000000000000000000000000000000000000000000081526004016134d791906146d9565b60405180910390fd5b50600073ffffffffffffffffffffffffffffffffffffffff166001600083815260200190815260200160002060009054906101000a900473ffffffffffffffffffffffffffffffffffffffff1673ffffffffffffffffffffffffffffffffffffffff16146040518060400160405280600681526020017f3030333030360000000000000000000000000000000000000000000000000000815250906135bb576040517f08c379a00000000000000000000000000000000000000000000000000000000081526004016135b291906146d9565b60405180910390fd5b506135c6828261389b565b808273ffffffffffffffffffffffffffffffffffffffff16600073ffffffffffffffffffffffffffffffffffffffff167fddf252ad1be2c89b69c2b068fc378daa952ba7f163c4a11628f55a4df523b3ef60405160405180910390a45050565b81600073ffffffffffffffffffffffffffffffffffffffff166001600083815260200190815260200160002060009054906101000a900473ffffffffffffffffffffffffffffffffffffffff1673ffffffffffffffffffffffffffffffffffffffff1614156040518060400160405280600681526020017f303033303032000000000000000000000000000000000000000000000000000081525090613702576040517f08c379a00000000000000000000000000000000000000000000000000000000081526004016136f991906146d9565b60405180910390fd5b508160076000858152602001908152602001600020908051906020019061372a929190613b16565b50505050565b8173ffffffffffffffffffffffffffffffffffffffff166001600083815260200190815260200160002060009054906101000a900473ffffffffffffffffffffffffffffffffffffffff1673ffffffffffffffffffffffffffffffffffffffff16146040518060400160405280600681526020017f303033303037000000000000000000000000000000000000000000000000000081525090613809576040517f08c379a000000000000000000000000000000000000000000000000000000000815260040161380091906146d9565b60405180910390fd5b506001600360008473ffffffffffffffffffffffffffffffffffffffff1673ffffffffffffffffffffffffffffffffffffffff168152602001908152602001600020600082825461385a9190614979565b925050819055506001600082815260200190815260200160002060006101000a81549073ffffffffffffffffffffffffffffffffffffffff02191690555050565b600073ffffffffffffffffffffffffffffffffffffffff166001600083815260200190815260200160002060009054906101000a900473ffffffffffffffffffffffffffffffffffffffff1673ffffffffffffffffffffffffffffffffffffffff16146040518060400160405280600681526020017f303033303036000000000000000000000000000000000000000000000000000081525090613975576040517f08c379a000000000000000000000000000000000000000000000000000000000815260040161396c91906146d9565b60405180910390fd5b50816001600083815260200190815260200160002060006101000a81548173ffffffffffffffffffffffffffffffffffffffff021916908373ffffffffffffffffffffffffffffffffffffffff1602179055506001600360008473ffffffffffffffffffffffffffffffffffffffff1673ffffffffffffffffffffffffffffffffffffffff1681526020019081526020016000206000828254613a189190614923565b925050819055505050565b6002600082815260200190815260200160002060006101000a81549073ffffffffffffffffffffffffffffffffffffffff021916905550565b60008060007fc5d2460186f7233c927e7db2dcc703c0e500b653ca82273b7bfad8045d85a47060001b9050833f91506000801b8214158015613a9e5750808214155b92505050919050565b6040518060c001604052806000815260200160608152602001600081526020016000815260200160008152602001600073ffffffffffffffffffffffffffffffffffffffff1681525090565b604051806060016040528060008152602001606081526020016000151581525090565b828054613b2290614a9c565b90600052602060002090601f016020900481019282613b445760008555613b8b565b82601f10613b5d57805160ff1916838001178555613b8b565b82800160010185558215613b8b579182015b82811115613b8a578251825591602001919060010190613b6f565b5b509050613b989190613b9c565b5090565b5b80821115613bb5576000816000905550600101613b9d565b5090565b600081359050613bc881614d1c565b92915050565b600081359050613bdd81614d33565b92915050565b600081359050613bf281614d4a565b92915050565b600081359050613c0781614d61565b92915050565b600081519050613c1c81614d61565b92915050565b60008083601f840112613c3857613c37614bd8565b5b8235905067ffffffffffffffff811115613c5557613c54614bd3565b5b602083019150836001820283011115613c7157613c70614bdd565b5b9250929050565b60008083601f840112613c8e57613c8d614bd8565b5b8235905067ffffffffffffffff811115613cab57613caa614bd3565b5b602083019150836001820283011115613cc757613cc6614bdd565b5b9250929050565b600081359050613cdd81614d78565b92915050565b600060208284031215613cf957613cf8614be7565b5b6000613d0784828501613bb9565b91505092915050565b600080600060608486031215613d2957613d28614be7565b5b6000613d3786828701613bce565b9350506020613d4886828701613cce565b9250506040613d5986828701613cce565b9150509250925092565b60008060408385031215613d7a57613d79614be7565b5b6000613d8885828601613bb9565b9250506020613d9985828601613bb9565b9150509250929050565b600080600060608486031215613dbc57613dbb614be7565b5b6000613dca86828701613bb9565b9350506020613ddb86828701613bb9565b9250506040613dec86828701613cce565b9150509250925092565b600080600080600060808688031215613e1257613e11614be7565b5b6000613e2088828901613bb9565b9550506020613e3188828901613bb9565b9450506040613e4288828901613cce565b935050606086013567ffffffffffffffff811115613e6357613e62614be2565b5b613e6f88828901613c22565b92509250509295509295909350565b60008060408385031215613e9557613e94614be7565b5b6000613ea385828601613bb9565b9250506020613eb485828601613be3565b9150509250929050565b60008060008060608587031215613ed857613ed7614be7565b5b6000613ee687828801613bb9565b945050602085013567ffffffffffffffff811115613f0757613f06614be2565b5b613f1387828801613c78565b93509350506040613f2687828801613cce565b91505092959194509250565b60008060408385031215613f4957613f48614be7565b5b6000613f5785828601613bb9565b9250506020613f6885828601613cce565b9150509250929050565b600060208284031215613f8857613f87614be7565b5b6000613f9684828501613bf8565b91505092915050565b600060208284031215613fb557613fb4614be7565b5b6000613fc384828501613c0d565b91505092915050565b600060208284031215613fe257613fe1614be7565b5b6000613ff084828501613cce565b91505092915050565b600080604083850312156140105761400f614be7565b5b600061401e85828601613cce565b925050602061402f85828601613cce565b9150509250929050565b60008060008060008060c0878903121561405657614055614be7565b5b600061406489828a01613cce565b965050602061407589828a01613cce565b955050604061408689828a01613cce565b945050606061409789828a01613cce565b93505060806140a889828a01613bce565b92505060a06140b989828a01613cce565b9150509295509295509295565b60006140d2838361412d565b60208301905092915050565b60006140ea83836144af565b905092915050565b60006140fe8383614538565b905092915050565b60006141128383614588565b60208301905092915050565b61412781614a33565b82525050565b614136816149ad565b82525050565b614145816149ad565b82525050565b600061415682614836565b61416081856148ac565b935061416b836147f6565b8060005b8381101561419c57815161418388826140c6565b975061418e83614878565b92505060018101905061416f565b5085935050505092915050565b60006141b482614841565b6141be81856148bd565b9350836020820285016141d085614806565b8060005b8581101561420c57848403895281516141ed85826140de565b94506141f883614885565b925060208a019950506001810190506141d4565b50829750879550505050505092915050565b60006142298261484c565b61423381856148ce565b93508360208202850161424585614816565b8060005b85811015614281578484038952815161426285826140f2565b945061426d83614892565b925060208a01995050600181019050614249565b50829750879550505050505092915050565b600061429e82614857565b6142a881856148df565b93506142b383614826565b8060005b838110156142e45781516142cb8882614106565b97506142d68361489f565b9250506001810190506142b7565b5085935050505092915050565b6142fa816149d1565b82525050565b614309816149d1565b82525050565b600061431a82614862565b61432481856148f0565b9350614334818560208601614a69565b61433d81614bec565b840191505092915050565b60006143538261486d565b61435d8185614901565b935061436d818560208601614a69565b61437681614bec565b840191505092915050565b600061438c8261486d565b6143968185614912565b93506143a6818560208601614a69565b6143af81614bec565b840191505092915050565b60006143c7601583614912565b91506143d282614bfd565b602082019050919050565b60006143ea601683614912565b91506143f582614c26565b602082019050919050565b600061440d601e83614912565b915061441882614c4f565b602082019050919050565b6000614430601683614912565b915061443b82614c78565b602082019050919050565b6000614453601583614912565b915061445e82614ca1565b602082019050919050565b6000614476601483614912565b915061448182614cca565b602082019050919050565b6000614499601183614912565b91506144a482614cf3565b602082019050919050565b600060c0830160008301516144c76000860182614588565b50602083015184820360208601526144df8282614348565b91505060408301516144f46040860182614588565b5060608301516145076060860182614588565b50608083015161451a6080860182614588565b5060a083015161452d60a086018261412d565b508091505092915050565b60006060830160008301516145506000860182614588565b50602083015184820360208601526145688282614348565b915050604083015161457d60408601826142f1565b508091505092915050565b61459181614a29565b82525050565b6145a081614a29565b82525050565b60006020820190506145bb600083018461413c565b92915050565b60006040820190506145d6600083018561411e565b6145e36020830184614597565b9392505050565b60006080820190506145ff600083018761413c565b61460c602083018661413c565b6146196040830185614597565b818103606083015261462b818461430f565b905095945050505050565b60006020820190508181036000830152614650818461414b565b905092915050565b6000602082019050818103600083015261467281846141a9565b905092915050565b60006020820190508181036000830152614694818461421e565b905092915050565b600060208201905081810360008301526146b68184614293565b905092915050565b60006020820190506146d36000830184614300565b92915050565b600060208201905081810360008301526146f38184614381565b905092915050565b60006020820190508181036000830152614714816143ba565b9050919050565b60006020820190508181036000830152614734816143dd565b9050919050565b6000602082019050818103600083015261475481614400565b9050919050565b6000602082019050818103600083015261477481614423565b9050919050565b6000602082019050818103600083015261479481614446565b9050919050565b600060208201905081810360008301526147b481614469565b9050919050565b600060208201905081810360008301526147d48161448c565b9050919050565b60006020820190506147f06000830184614597565b92915050565b6000819050602082019050919050565b6000819050602082019050919050565b6000819050602082019050919050565b6000819050602082019050919050565b600081519050919050565b600081519050919050565b600081519050919050565b600081519050919050565b600081519050919050565b600081519050919050565b6000602082019050919050565b6000602082019050919050565b6000602082019050919050565b6000602082019050919050565b600082825260208201905092915050565b600082825260208201905092915050565b600082825260208201905092915050565b600082825260208201905092915050565b600082825260208201905092915050565b600082825260208201905092915050565b600082825260208201905092915050565b600061492e82614a29565b915061493983614a29565b9250827fffffffffffffffffffffffffffffffffffffffffffffffffffffffffffffffff0382111561496e5761496d614b17565b5b828201905092915050565b600061498482614a29565b915061498f83614a29565b9250828210156149a2576149a1614b17565b5b828203905092915050565b60006149b882614a09565b9050919050565b60006149ca82614a09565b9050919050565b60008115159050919050565b60007fffffffff0000000000000000000000000000000000000000000000000000000082169050919050565b600073ffffffffffffffffffffffffffffffffffffffff82169050919050565b6000819050919050565b6000614a3e82614a45565b9050919050565b6000614a5082614a57565b9050919050565b6000614a6282614a09565b9050919050565b60005b83811015614a87578082015181840152602081019050614a6c565b83811115614a96576000848401525b50505050565b60006002820490506001821680614ab457607f821691505b60208210811415614ac857614ac7614b46565b5b50919050565b6000614ad982614a29565b91507fffffffffffffffffffffffffffffffffffffffffffffffffffffffffffffffff821415614b0c57614b0b614b17565b5b600182019050919050565b7f4e487b7100000000000000000000000000000000000000000000000000000000600052601160045260246000fd5b7f4e487b7100000000000000000000000000000000000000000000000000000000600052602260045260246000fd5b7f4e487b7100000000000000000000000000000000000000000000000000000000600052603260045260246000fd5b7f4e487b7100000000000000000000000000000000000000000000000000000000600052604160045260246000fd5b600080fd5b600080fd5b600080fd5b600080fd5b600080fd5b6000601f19601f8301169050919050565b7f41756374696f6e20737461727473206c617465722e0000000000000000000000600082015250565b7f41756374696f6e20616c726561647920656e6465642e00000000000000000000600082015250565b7f546865726520616c7265616479206973206120686967686572206269642e0000600082015250565b7f41756374696f6e206e6f742079657420656e6465642e00000000000000000000600082015250565b7f4974206973206e6f74206f6e2061756374696f6e2e0000000000000000000000600082015250565b7f596f752063616e6e6f7420636c61696d2069742e000000000000000000000000600082015250565b7f4974206973206f6e2061756374696f6e21000000000000000000000000000000600082015250565b614d25816149ad565b8114614d3057600080fd5b50565b614d3c816149bf565b8114614d4757600080fd5b50565b614d53816149d1565b8114614d5e57600080fd5b50565b614d6a816149dd565b8114614d7557600080fd5b50565b614d8181614a29565b8114614d8c57600080fd5b5056fea2646970667358221220daa2f05c79afeb299ab7940564cddcb17b6ed8ea554d053c3cd04a9d992b865a64736f6c63430008060033",
  "immutableReferences": {},
  "source": "// SPDX-License-Identifier: MIT\r\npragma solidity 0.8.6;\r\n\r\nimport \"../ethereum-erc721/src/contracts/tokens/nf-token-metadata.sol\";\r\nimport \"../ethereum-erc721/src/contracts/ownership/ownable.sol\";\r\n\r\n\r\ncontract Auction is NFTokenMetadata, Ownable {\r\n    \r\n    struct MyNftoken {\r\n        uint256 tokenid;\r\n        string uri;\r\n        bool on_auction;\r\n    }\r\n\r\n    struct AuctionInfo {\r\n        uint256 tokenid;\r\n        string uri;\r\n        uint begin_time;\r\n        uint end_time;\r\n        uint current_price;\r\n        address highest_bidder;\r\n    }\r\n\r\n    uint256 _tokenId;\r\n    mapping(uint256 =>bool) is_on_auction;\r\n    mapping(uint256 =>uint) auction_begin_time;\r\n    mapping(uint256 =>uint) auction_end_time;\r\n    mapping(uint256 =>uint) auction_price;\r\n    mapping(uint256 =>address payable) highest_bidder;\r\n    mapping(uint256 =>address payable) beneficiary;\r\n    mapping(uint256 =>address[]) transer; \r\n\r\n    event HighestPriceIncreased(address bidder, uint amount);\r\n    event AuctionEnded(address winner, uint amount);\r\n\r\n    constructor(){\r\n        nftName = \"3190104605\";\r\n        nftSymbol = \"zynm\";\r\n        _tokenId = 0;\r\n    }\r\n\r\n    function mint(address _to, string calldata _uri, uint nowtime) external {\r\n        _tokenId++;\r\n        super._mint(_to, _tokenId);\r\n        super._setTokenUri(_tokenId, _uri);\r\n        is_on_auction[_tokenId] = false;\r\n        auction_end_time[_tokenId] = nowtime;\r\n        auction_begin_time[_tokenId] = nowtime;\r\n    }\r\n\r\n    function showMyNFT( address _address ) public view returns (MyNftoken[] memory) {\r\n        MyNftoken[] memory count = new MyNftoken[](_tokenId);\r\n        for(uint256 i=0;i<_tokenId;i++){\r\n            count[i].tokenid = 0;\r\n        }\r\n        uint256 cou = 0;\r\n        for (uint256 index = 0; index < _tokenId ; index++) {\r\n           if( idToOwner[index+1] == _address ) {\r\n                count[cou].tokenid = index+1;\r\n                count[cou].uri = idToUri[index+1];\r\n                count[cou].on_auction = is_on_auction[index+1];\r\n                cou += 1;\r\n            }\r\n        }\r\n        return count;\r\n    }\r\n\r\n    function showClaim( address _address, uint nowtime ) public view returns(uint256[] memory) {\r\n        uint256[] memory count = new uint256[](_tokenId);\r\n        for(uint256 i=0;i<_tokenId;i++){\r\n            count[i] = 0;\r\n        }\r\n        uint256 cou = 0;\r\n        for (uint256 index = 0; index < _tokenId ; index++) {\r\n            if( is_on_auction[index+1] == true\r\n            && (highest_bidder[index+1] == _address\r\n            && nowtime > auction_end_time[index+1] )){\r\n                count[cou] = index+1;\r\n                cou += 1;\r\n            }\r\n        }\r\n        return count;\r\n    }\r\n\r\n    function showAuction(uint nowtime) public view returns (AuctionInfo[] memory) {\r\n        AuctionInfo[] memory count = new AuctionInfo[](_tokenId);\r\n        uint cou = 0;\r\n        for(uint256 i=0;i<_tokenId;i++){\r\n            count[i].tokenid = 0;\r\n        }\r\n        for(uint256 i=0;i<_tokenId;i++){\r\n            if( is_on_auction[i+1] == true\r\n                && nowtime > auction_begin_time[i+1]\r\n                && nowtime < auction_end_time[i+1]\r\n            ){\r\n                count[cou].tokenid = i+1;\r\n                count[cou].uri = idToUri[i+1];\r\n                count[cou].begin_time = auction_begin_time[i+1];\r\n                count[cou].end_time = auction_end_time[i+1];\r\n                count[cou].current_price = auction_price[i+1];\r\n                count[cou].highest_bidder = highest_bidder[i+1];\r\n                cou += 1;\r\n            }\r\n        }\r\n        return count;\r\n    }\r\n\r\n    function showTransmission( uint256 tokenid ) public view returns (address[] memory) {\r\n        uint len = transer[tokenid].length;\r\n        uint allocate = len;\r\n        if(len == 0){\r\n            allocate = 1;\r\n        }\r\n        address[] memory count = new address[](allocate);\r\n        if(len != 0){\r\n            for(uint i=0;i<transer[tokenid].length;i++) {\r\n                count[i] = address(transer[tokenid][i]);\r\n            }\r\n        }\r\n        else{\r\n            count[0] = address(0);\r\n        }\r\n        return count;\r\n    }\r\n\r\n    function beginAuction( uint begin_time, uint end_time, uint256 token, uint start_price, address payable beginner, uint nowtime ) public {\r\n        require( begin_time > nowtime );\r\n        require( begin_time < end_time );\r\n        require( token >0 );\r\n        require( token <= _tokenId );\r\n        require( is_on_auction[token] == false, \"It is on auction!\");\r\n\r\n        is_on_auction[token] = true;\r\n        auction_begin_time[token] = begin_time;\r\n        auction_end_time[token] = end_time;\r\n        auction_price[token] = start_price;\r\n        beneficiary[token] = beginner;\r\n        highest_bidder[token] = beginner;\r\n    }\r\n\r\n    function bid( address payable bidder, uint256 token, uint nowtime ) public payable {\r\n        uint amount = msg.value;\r\n        require( nowtime >= auction_begin_time[token], \"Auction starts later.\" );\r\n        require( nowtime < auction_end_time[token], \"Auction already ended.\" );\r\n        require( amount > auction_price[token], \"There already is a higher bid.\" );\r\n        \r\n        if(highest_bidder[token] != beneficiary[token])\r\n            highest_bidder[token].transfer(auction_price[token]);\r\n        auction_price[token] = amount;\r\n        highest_bidder[token] = bidder;\r\n\r\n        emit HighestPriceIncreased( bidder, amount );\r\n    }\r\n\r\n    function claim( uint256 tokenid, uint nowtime ) public payable {\r\n        require( nowtime >= auction_end_time[tokenid], \"Auction not yet ended.\" );\r\n        require( is_on_auction[tokenid] == true , \"It is not on auction.\" );\r\n        require( msg.sender == highest_bidder[tokenid], \"You cannot claim it.\" );\r\n\r\n        is_on_auction[tokenid] = false;\r\n        emit AuctionEnded( highest_bidder[tokenid], auction_price[tokenid] );\r\n        beneficiary[tokenid].transfer(auction_price[tokenid]);\r\n        transer[tokenid].push(beneficiary[tokenid]);\r\n        if(highest_bidder[tokenid] != beneficiary[tokenid]){\r\n            address from = idToOwner[tokenid];\r\n            delete idToApproval[tokenid];\r\n\r\n            _removeNFToken(from, tokenid);\r\n            _addNFToken(highest_bidder[tokenid], tokenid);\r\n\r\n            emit Transfer(from, highest_bidder[tokenid], tokenid);\r\n        }\r\n    }\r\n}\r\n\r\n",
  "sourcePath": "D:\\ZJU5\\\\\\BlockChain_hw\\contracts\\Auction.sol",
  "compiler": {
    "name": "solc",
    "version": "0.8.6+commit.11564f7e.Emscripten.clang"
  },
  "schemaVersion": "3.4.3",
  "updatedAt": "2021-11-06T04:50:20.275Z",
  "networkType": "ethereum",
  "devdoc": {
    "kind": "dev",
    "methods": {
      "approve(address,uint256)": {
        "details": "Set or reaffirm the approved address for an NFT. This function can be changed to payable.",
        "params": {
          "_approved": "Address to be approved for the given NFT ID.",
          "_tokenId": "ID of the token to be approved."
        }
      },
      "balanceOf(address)": {
        "details": "Returns the number of NFTs owned by `_owner`. NFTs assigned to the zero address are considered invalid, and this function throws for queries about the zero address.",
        "params": {
          "_owner": "Address for whom to query the balance."
        },
        "returns": {
          "_0": "Balance of _owner."
        }
      },
      "getApproved(uint256)": {
        "details": "Get the approved address for a single NFT.",
        "params": {
          "_tokenId": "ID of the NFT to query the approval of."
        },
        "returns": {
          "_0": "Address that _tokenId is approved for."
        }
      },
      "isApprovedForAll(address,address)": {
        "details": "Checks if `_operator` is an approved operator for `_owner`.",
        "params": {
          "_operator": "The address that acts on behalf of the owner.",
          "_owner": "The address that owns the NFTs."
        },
        "returns": {
          "_0": "True if approved for all, false otherwise."
        }
      },
      "name()": {
        "details": "Returns a descriptive name for a collection of NFTokens.",
        "returns": {
          "_name": "Representing name."
        }
      },
      "ownerOf(uint256)": {
        "details": "Returns the address of the owner of the NFT. NFTs assigned to the zero address are considered invalid, and queries about them do throw.",
        "params": {
          "_tokenId": "The identifier for an NFT."
        },
        "returns": {
          "_owner": "Address of _tokenId owner."
        }
      },
      "safeTransferFrom(address,address,uint256)": {
        "details": "Transfers the ownership of an NFT from one address to another address. This function can be changed to payable.",
        "params": {
          "_from": "The current owner of the NFT.",
          "_to": "The new owner.",
          "_tokenId": "The NFT to transfer."
        }
      },
      "safeTransferFrom(address,address,uint256,bytes)": {
        "details": "Transfers the ownership of an NFT from one address to another address. This function can be changed to payable.",
        "params": {
          "_data": "Additional data with no specified format, sent in call to `_to`.",
          "_from": "The current owner of the NFT.",
          "_to": "The new owner.",
          "_tokenId": "The NFT to transfer."
        }
      },
      "setApprovalForAll(address,bool)": {
        "details": "Enables or disables approval for a third party (\"operator\") to manage all of `msg.sender`'s assets. It also emits the ApprovalForAll event.",
        "params": {
          "_approved": "True if the operators is approved, false to revoke approval.",
          "_operator": "Address to add to the set of authorized operators."
        }
      },
      "supportsInterface(bytes4)": {
        "details": "Function to check which interfaces are suported by this contract.",
        "params": {
          "_interfaceID": "Id of the interface."
        },
        "returns": {
          "_0": "True if _interfaceID is supported, false otherwise."
        }
      },
      "symbol()": {
        "details": "Returns an abbreviated name for NFTokens.",
        "returns": {
          "_symbol": "Representing symbol."
        }
      },
      "tokenURI(uint256)": {
        "details": "A distinct URI (RFC 3986) for a given NFT.",
        "params": {
          "_tokenId": "Id for which we want uri."
        },
        "returns": {
          "_0": "URI of _tokenId."
        }
      },
      "transferFrom(address,address,uint256)": {
        "details": "Throws unless `msg.sender` is the current owner, an authorized operator, or the approved address for this NFT. Throws if `_from` is not the current owner. Throws if `_to` is the zero address. Throws if `_tokenId` is not a valid NFT. This function can be changed to payable.",
        "params": {
          "_from": "The current owner of the NFT.",
          "_to": "The new owner.",
          "_tokenId": "The NFT to transfer."
        }
      },
      "transferOwnership(address)": {
        "details": "Allows the current owner to transfer control of the contract to a newOwner.",
        "params": {
          "_newOwner": "The address to transfer ownership to."
        }
      }
    },
    "version": 1
  },
  "userdoc": {
    "kind": "user",
    "methods": {
      "approve(address,uint256)": {
        "notice": "The zero address indicates there is no approved address. Throws unless `msg.sender` is the current NFT owner, or an authorized operator of the current owner."
      },
      "getApproved(uint256)": {
        "notice": "Throws if `_tokenId` is not a valid NFT."
      },
      "safeTransferFrom(address,address,uint256)": {
        "notice": "This works identically to the other function with an extra data parameter, except this function just sets data to \"\"."
      },
      "safeTransferFrom(address,address,uint256,bytes)": {
        "notice": "Throws unless `msg.sender` is the current owner, an authorized operator, or the approved address for this NFT. Throws if `_from` is not the current owner. Throws if `_to` is the zero address. Throws if `_tokenId` is not a valid NFT. When transfer is complete, this function checks if `_to` is a smart contract (code size > 0). If so, it calls `onERC721Received` on `_to` and throws if the return value is not `bytes4(keccak256(\"onERC721Received(address,uint256,bytes)\"))`."
      },
      "setApprovalForAll(address,bool)": {
        "notice": "This works even if sender doesn't own any tokens at the time."
      },
      "transferFrom(address,address,uint256)": {
        "notice": "The caller is responsible to confirm that `_to` is capable of receiving NFTs or else they may be permanently lost."
      }
    },
    "version": 1
  }
}